{"contracts/MMDVWineTokenV3.sol":{"MMDVWineTokenV3":{"abi":[{"inputs":[],"stateMutability":"nonpayable","type":"constructor"},{"inputs":[{"internalType":"uint256","name":"increasedSupply","type":"uint256"},{"internalType":"uint256","name":"cap","type":"uint256"}],"name":"ERC20ExceededCap","type":"error"},{"inputs":[{"internalType":"address","name":"spender","type":"address"},{"internalType":"uint256","name":"allowance","type":"uint256"},{"internalType":"uint256","name":"needed","type":"uint256"}],"name":"ERC20InsufficientAllowance","type":"error"},{"inputs":[{"internalType":"address","name":"sender","type":"address"},{"internalType":"uint256","name":"balance","type":"uint256"},{"internalType":"uint256","name":"needed","type":"uint256"}],"name":"ERC20InsufficientBalance","type":"error"},{"inputs":[{"internalType":"address","name":"approver","type":"address"}],"name":"ERC20InvalidApprover","type":"error"},{"inputs":[{"internalType":"uint256","name":"cap","type":"uint256"}],"name":"ERC20InvalidCap","type":"error"},{"inputs":[{"internalType":"address","name":"receiver","type":"address"}],"name":"ERC20InvalidReceiver","type":"error"},{"inputs":[{"internalType":"address","name":"sender","type":"address"}],"name":"ERC20InvalidSender","type":"error"},{"inputs":[{"internalType":"address","name":"spender","type":"address"}],"name":"ERC20InvalidSpender","type":"error"},{"inputs":[],"name":"EnforcedPause","type":"error"},{"inputs":[],"name":"ExpectedPause","type":"error"},{"inputs":[{"internalType":"address","name":"owner","type":"address"}],"name":"OwnableInvalidOwner","type":"error"},{"inputs":[{"internalType":"address","name":"account","type":"address"}],"name":"OwnableUnauthorizedAccount","type":"error"},{"anonymous":false,"inputs":[{"indexed":true,"internalType":"address","name":"owner","type":"address"},{"indexed":true,"internalType":"address","name":"spender","type":"address"},{"indexed":false,"internalType":"uint256","name":"value","type":"uint256"}],"name":"Approval","type":"event"},{"anonymous":false,"inputs":[{"indexed":true,"internalType":"address","name":"previousOwner","type":"address"},{"indexed":true,"internalType":"address","name":"newOwner","type":"address"}],"name":"OwnershipTransferred","type":"event"},{"anonymous":false,"inputs":[{"indexed":false,"internalType":"address","name":"account","type":"address"}],"name":"Paused","type":"event"},{"anonymous":false,"inputs":[{"indexed":true,"internalType":"address","name":"from","type":"address"},{"indexed":true,"internalType":"address","name":"to","type":"address"},{"indexed":false,"internalType":"uint256","name":"value","type":"uint256"}],"name":"Transfer","type":"event"},{"anonymous":false,"inputs":[{"indexed":false,"internalType":"address","name":"account","type":"address"}],"name":"Unpaused","type":"event"},{"inputs":[],"name":"BASE_PRICE_UNITS","outputs":[{"internalType":"uint256","name":"","type":"uint256"}],"stateMutability":"view","type":"function"},{"inputs":[],"name":"MAX_SUPPLY","outputs":[{"internalType":"uint256","name":"","type":"uint256"}],"stateMutability":"view","type":"function"},{"inputs":[{"internalType":"address","name":"owner","type":"address"},{"internalType":"address","name":"spender","type":"address"}],"name":"allowance","outputs":[{"internalType":"uint256","name":"","type":"uint256"}],"stateMutability":"view","type":"function"},{"inputs":[{"internalType":"address","name":"spender","type":"address"},{"internalType":"uint256","name":"value","type":"uint256"}],"name":"approve","outputs":[{"internalType":"bool","name":"","type":"bool"}],"stateMutability":"nonpayable","type":"function"},{"inputs":[{"internalType":"address","name":"account","type":"address"}],"name":"balanceOf","outputs":[{"internalType":"uint256","name":"","type":"uint256"}],"stateMutability":"view","type":"function"},{"inputs":[{"internalType":"uint256","name":"value","type":"uint256"}],"name":"burn","outputs":[],"stateMutability":"nonpayable","type":"function"},{"inputs":[{"internalType":"address","name":"account","type":"address"},{"internalType":"uint256","name":"value","type":"uint256"}],"name":"burnFrom","outputs":[],"stateMutability":"nonpayable","type":"function"},{"inputs":[],"name":"cap","outputs":[{"internalType":"uint256","name":"","type":"uint256"}],"stateMutability":"view","type":"function"},{"inputs":[{"internalType":"address","name":"holder","type":"address"}],"name":"currentValueMultiplier","outputs":[{"internalType":"uint256","name":"multiplierBps","type":"uint256"}],"stateMutability":"view","type":"function"},{"inputs":[],"name":"decimals","outputs":[{"internalType":"uint8","name":"","type":"uint8"}],"stateMutability":"pure","type":"function"},{"inputs":[{"internalType":"address","name":"to","type":"address"},{"internalType":"uint256","name":"amount","type":"uint256"}],"name":"educationalMint","outputs":[],"stateMutability":"nonpayable","type":"function"},{"inputs":[{"internalType":"address","name":"","type":"address"}],"name":"holdings","outputs":[{"internalType":"uint256","name":"amount","type":"uint256"},{"internalType":"uint64","name":"firstPurchaseAt","type":"uint64"}],"stateMutability":"view","type":"function"},{"inputs":[{"internalType":"address","name":"holder","type":"address"}],"name":"loyaltyBonusAmount","outputs":[{"internalType":"uint256","name":"","type":"uint256"}],"stateMutability":"view","type":"function"},{"inputs":[],"name":"name","outputs":[{"internalType":"string","name":"","type":"string"}],"stateMutability":"view","type":"function"},{"inputs":[],"name":"owner","outputs":[{"internalType":"address","name":"","type":"address"}],"stateMutability":"view","type":"function"},{"inputs":[],"name":"pause","outputs":[],"stateMutability":"nonpayable","type":"function"},{"inputs":[],"name":"paused","outputs":[{"internalType":"bool","name":"","type":"bool"}],"stateMutability":"view","type":"function"},{"inputs":[],"name":"renounceOwnership","outputs":[],"stateMutability":"nonpayable","type":"function"},{"inputs":[],"name":"symbol","outputs":[{"internalType":"string","name":"","type":"string"}],"stateMutability":"view","type":"function"},{"inputs":[],"name":"totalSupply","outputs":[{"internalType":"uint256","name":"","type":"uint256"}],"stateMutability":"view","type":"function"},{"inputs":[{"internalType":"address","name":"to","type":"address"},{"internalType":"uint256","name":"value","type":"uint256"}],"name":"transfer","outputs":[{"internalType":"bool","name":"","type":"bool"}],"stateMutability":"nonpayable","type":"function"},{"inputs":[{"internalType":"address","name":"from","type":"address"},{"internalType":"address","name":"to","type":"address"},{"internalType":"uint256","name":"value","type":"uint256"}],"name":"transferFrom","outputs":[{"internalType":"bool","name":"","type":"bool"}],"stateMutability":"nonpayable","type":"function"},{"inputs":[{"internalType":"address","name":"newOwner","type":"address"}],"name":"transferOwnership","outputs":[],"stateMutability":"nonpayable","type":"function"},{"inputs":[],"name":"unpause","outputs":[],"stateMutability":"nonpayable","type":"function"}],"evm":{"bytecode":{"linkReferences":{},"object":"60a06040523480156200001157600080fd5b5033620f4240604051806040016040528060128152602001714d4d44562057696e6520546f6b656e20563360701b815250604051806040016040528060048152602001634d57543360e01b8152508160039081620000709190620001f8565b5060046200007f8282620001f8565b50505080600003620000ac5760405163392e1e2760e01b8152600060048201526024015b60405180910390fd5b6080526005805460ff191690556001600160a01b038116620000e557604051631e4fbdf760e01b815260006004820152602401620000a3565b620000f081620000f7565b50620002c4565b600580546001600160a01b03838116610100818102610100600160a81b031985161790945560405193909204169182907f8be0079c531659141344cd1fd0a4f28419497f9722a3daafe3b4186f6b6457e090600090a35050565b634e487b7160e01b600052604160045260246000fd5b600181811c908216806200017c57607f821691505b6020821081036200019d57634e487b7160e01b600052602260045260246000fd5b50919050565b601f821115620001f3576000816000526020600020601f850160051c81016020861015620001ce5750805b601f850160051c820191505b81811015620001ef57828155600101620001da565b5050505b505050565b81516001600160401b0381111562000214576200021462000151565b6200022c8162000225845462000167565b84620001a3565b602080601f8311600181146200026457600084156200024b5750858301515b600019600386901b1c1916600185901b178555620001ef565b600085815260208120601f198616915b82811015620002955788860151825594840194600190910190840162000274565b5085821015620002b45787850151600019600388901b60f8161c191681555b5050505050600190811b01905550565b608051610f1c620002e7600039600081816101f90152610b7c0152610f1c6000f3fe608060405234801561001057600080fd5b50600436106101585760003560e01c80635c975abb116100c357806395d89b411161007c57806395d89b41146102cd578063a9059cbb146102d5578063dd3ced63146102e8578063dd62ed3e14610337578063e525907f14610370578063f2fde38b1461038357600080fd5b80635c975abb1461024d57806370a0823114610258578063715018a61461028157806379cc6790146102895780638456cb591461029c5780638da5cb5b146102a457600080fd5b8063313ce56711610115578063313ce567146101de57806332cb6b0c146101ed578063355274ea146101f75780633f4ba83a1461021d57806342966c68146102275780635c342ae81461023a57600080fd5b8063011106871461015d57806306fdde0314610178578063095ea7b31461018d57806318160ddd146101b057806323b872dd146101b85780632c4336f8146101cb575b600080fd5b610165600a81565b6040519081526020015b60405180910390f35b610180610396565b60405161016f9190610cf8565b6101a061019b366004610d63565b610428565b604051901515815260200161016f565b600254610165565b6101a06101c6366004610d8d565b610442565b6101656101d9366004610dc9565b610466565b6040516000815260200161016f565b610165620f424081565b7f0000000000000000000000000000000000000000000000000000000000000000610165565b610225610511565b005b610225610235366004610deb565b610523565b610165610248366004610dc9565b610530565b60055460ff166101a0565b610165610266366004610dc9565b6001600160a01b031660009081526020819052604090205490565b610225610619565b610225610297366004610d63565b61062b565b610225610644565b60055461010090046001600160a01b03166040516001600160a01b03909116815260200161016f565b610180610654565b6101a06102e3366004610d63565b610663565b6103196102f6366004610dc9565b6006602052600090815260409020805460019091015467ffffffffffffffff1682565b6040805192835267ffffffffffffffff90911660208301520161016f565b610165610345366004610e04565b6001600160a01b03918216600090815260016020908152604080832093909416825291909152205490565b61022561037e366004610d63565b610671565b610225610391366004610dc9565b61077c565b6060600380546103a590610e37565b80601f01602080910402602001604051908101604052809291908181526020018280546103d190610e37565b801561041e5780601f106103f35761010080835404028352916020019161041e565b820191906000526020600020905b81548152906001019060200180831161040157829003601f168201915b5050505050905090565b6000336104368185856107b7565b60019150505b92915050565b6000336104508582856107c4565b61045b858585610842565b506001949350505050565b6001600160a01b03811660009081526006602090815260408083208151808301909252805482526001015467ffffffffffffffff169181018290529015806104ad57508051155b156104bb5750600092915050565b6000816020015167ffffffffffffffff16426104d79190610e87565b9050630784ce008110156104ef575060009392505050565b81516064906104ff90600a610e9a565b6105099190610eb1565b949350505050565b6105196108a1565b6105216108d4565b565b61052d3382610926565b50565b6001600160a01b03811660009081526006602090815260408083208151808301909252805482526001015467ffffffffffffffff1691810182905290820361057c575061271092915050565b6000816020015167ffffffffffffffff16426105989190610e87565b90506301e13380808210156105b35750612710949350505050565b6105be816002610e9a565b8210156105d15750612904949350505050565b6105dc816003610e9a565b8210156105ef5750612af8949350505050565b6105fa816004610e9a565b82101561060d5750612cec949350505050565b50612ee0949350505050565b6106216108a1565b610521600061095c565b6106368233836107c4565b6106408282610926565b5050565b61064c6108a1565b6105216109b6565b6060600480546103a590610e37565b600033610436818585610842565b6106796108a1565b6001600160a01b0382166106c75760405162461bcd60e51b815260206004820152601060248201526f44657374696e6f20696e76616c69646f60801b60448201526064015b60405180910390fd5b600081116107065760405162461bcd60e51b815260206004820152600c60248201526b043616e7469646164203e20360a41b60448201526064016106be565b61071082826109f3565b6001600160a01b038216600090815260066020526040812080549091839183919061073c908490610ed3565b9091555050600181015467ffffffffffffffff166000036107775760018101805467ffffffffffffffff19164267ffffffffffffffff161790555b505050565b6107846108a1565b6001600160a01b0381166107ae57604051631e4fbdf760e01b8152600060048201526024016106be565b61052d8161095c565b6107778383836001610a29565b6001600160a01b03838116600090815260016020908152604080832093861683529290522054600019811461083c578181101561082d57604051637dc7a0d960e11b81526001600160a01b038416600482015260248101829052604481018390526064016106be565b61083c84848484036000610a29565b50505050565b6001600160a01b03831661086c57604051634b637e8f60e11b8152600060048201526024016106be565b6001600160a01b0382166108965760405163ec442f0560e01b8152600060048201526024016106be565b610777838383610afe565b6005546001600160a01b036101009091041633146105215760405163118cdaa760e01b81523360048201526024016106be565b6108dc610b09565b6005805460ff191690557f5db9ee0a495bf2e6ff9c91a7834c1ba4fdd244a5e8aa4e537bd38aeae4b073aa335b6040516001600160a01b03909116815260200160405180910390a1565b6001600160a01b03821661095057604051634b637e8f60e11b8152600060048201526024016106be565b61064082600083610afe565b600580546001600160a01b03838116610100818102610100600160a81b031985161790945560405193909204169182907f8be0079c531659141344cd1fd0a4f28419497f9722a3daafe3b4186f6b6457e090600090a35050565b6109be610b2c565b6005805460ff191660011790557f62e78cea01bee320cd4e420270b5ea74000d11b0c9f74754ebdbfc544b05a2586109093390565b6001600160a01b038216610a1d5760405163ec442f0560e01b8152600060048201526024016106be565b61064060008383610afe565b6001600160a01b038416610a535760405163e602df0560e01b8152600060048201526024016106be565b6001600160a01b038316610a7d57604051634a1406b160e11b8152600060048201526024016106be565b6001600160a01b038085166000908152600160209081526040808320938716835292905220829055801561083c57826001600160a01b0316846001600160a01b03167f8c5be1e5ebec7d5bd14f71427d1e84f3dd0314c0f7b2291e5b200ac8c7c3b92584604051610af091815260200190565b60405180910390a350505050565b610777838383610b50565b60055460ff1661052157604051638dfc202b60e01b815260040160405180910390fd5b60055460ff16156105215760405163d93c066560e01b815260040160405180910390fd5b610b58610b2c565b610777838383610b69838383610bce565b6001600160a01b038316610777576002547f00000000000000000000000000000000000000000000000000000000000000009081811115610bc75760405163279e7e1560e21b815260048101829052602481018390526044016106be565b5050505050565b6001600160a01b038316610bf9578060026000828254610bee9190610ed3565b90915550610c6b9050565b6001600160a01b03831660009081526020819052604090205481811015610c4c5760405163391434e360e21b81526001600160a01b038516600482015260248101829052604481018390526064016106be565b6001600160a01b03841660009081526020819052604090209082900390555b6001600160a01b038216610c8757600280548290039055610ca6565b6001600160a01b03821660009081526020819052604090208054820190555b816001600160a01b0316836001600160a01b03167fddf252ad1be2c89b69c2b068fc378daa952ba7f163c4a11628f55a4df523b3ef83604051610ceb91815260200190565b60405180910390a3505050565b60006020808352835180602085015260005b81811015610d2657858101830151858201604001528201610d0a565b506000604082860101526040601f19601f8301168501019250505092915050565b80356001600160a01b0381168114610d5e57600080fd5b919050565b60008060408385031215610d7657600080fd5b610d7f83610d47565b946020939093013593505050565b600080600060608486031215610da257600080fd5b610dab84610d47565b9250610db960208501610d47565b9150604084013590509250925092565b600060208284031215610ddb57600080fd5b610de482610d47565b9392505050565b600060208284031215610dfd57600080fd5b5035919050565b60008060408385031215610e1757600080fd5b610e2083610d47565b9150610e2e60208401610d47565b90509250929050565b600181811c90821680610e4b57607f821691505b602082108103610e6b57634e487b7160e01b600052602260045260246000fd5b50919050565b634e487b7160e01b600052601160045260246000fd5b8181038181111561043c5761043c610e71565b808202811582820484141761043c5761043c610e71565b600082610ece57634e487b7160e01b600052601260045260246000fd5b500490565b8082018082111561043c5761043c610e7156fea26469706673582212206d510ce222e78d1408a64fe0c3949db4173c8b6e661f1054e1f177149e81abbe64736f6c63430008180033","opcodes":"PUSH1 0xA0 PUSH1 0x40 MSTORE CALLVALUE DUP1 ISZERO PUSH3 0x11 JUMPI PUSH1 0x0 DUP1 REVERT JUMPDEST POP CALLER PUSH3 0xF4240 PUSH1 0x40 MLOAD DUP1 PUSH1 0x40 ADD PUSH1 0x40 MSTORE DUP1 PUSH1 0x12 DUP2 MSTORE PUSH1 0x20 ADD PUSH18 0x4D4D44562057696E6520546F6B656E205633 PUSH1 0x70 SHL DUP2 MSTORE POP PUSH1 0x40 MLOAD DUP1 PUSH1 0x40 ADD PUSH1 0x40 MSTORE DUP1 PUSH1 0x4 DUP2 MSTORE PUSH1 0x20 ADD PUSH4 0x4D575433 PUSH1 0xE0 SHL DUP2 MSTORE POP DUP2 PUSH1 0x3 SWAP1 DUP2 PUSH3 0x70 SWAP2 SWAP1 PUSH3 0x1F8 JUMP JUMPDEST POP PUSH1 0x4 PUSH3 0x7F DUP3 DUP3 PUSH3 0x1F8 JUMP JUMPDEST POP POP POP DUP1 PUSH1 0x0 SUB PUSH3 0xAC JUMPI PUSH1 0x40 MLOAD PUSH4 0x392E1E27 PUSH1 0xE0 SHL DUP2 MSTORE PUSH1 0x0 PUSH1 0x4 DUP3 ADD MSTORE PUSH1 0x24 ADD JUMPDEST PUSH1 0x40 MLOAD DUP1 SWAP2 SUB SWAP1 REVERT JUMPDEST PUSH1 0x80 MSTORE PUSH1 0x5 DUP1 SLOAD PUSH1 0xFF NOT AND SWAP1 SSTORE PUSH1 0x1 PUSH1 0x1 PUSH1 0xA0 SHL SUB DUP2 AND PUSH3 0xE5 JUMPI PUSH1 0x40 MLOAD PUSH4 0x1E4FBDF7 PUSH1 0xE0 SHL DUP2 MSTORE PUSH1 0x0 PUSH1 0x4 DUP3 ADD MSTORE PUSH1 0x24 ADD PUSH3 0xA3 JUMP JUMPDEST PUSH3 0xF0 DUP2 PUSH3 0xF7 JUMP JUMPDEST POP PUSH3 0x2C4 JUMP JUMPDEST PUSH1 0x5 DUP1 SLOAD PUSH1 0x1 PUSH1 0x1 PUSH1 0xA0 SHL SUB DUP4 DUP2 AND PUSH2 0x100 DUP2 DUP2 MUL PUSH2 0x100 PUSH1 0x1 PUSH1 0xA8 SHL SUB NOT DUP6 AND OR SWAP1 SWAP5 SSTORE PUSH1 0x40 MLOAD SWAP4 SWAP1 SWAP3 DIV AND SWAP2 DUP3 SWAP1 PUSH32 0x8BE0079C531659141344CD1FD0A4F28419497F9722A3DAAFE3B4186F6B6457E0 SWAP1 PUSH1 0x0 SWAP1 LOG3 POP POP JUMP JUMPDEST PUSH4 0x4E487B71 PUSH1 0xE0 SHL PUSH1 0x0 MSTORE PUSH1 0x41 PUSH1 0x4 MSTORE PUSH1 0x24 PUSH1 0x0 REVERT JUMPDEST PUSH1 0x1 DUP2 DUP2 SHR SWAP1 DUP3 AND DUP1 PUSH3 0x17C JUMPI PUSH1 0x7F DUP3 AND SWAP2 POP JUMPDEST PUSH1 0x20 DUP3 LT DUP2 SUB PUSH3 0x19D JUMPI PUSH4 0x4E487B71 PUSH1 0xE0 SHL PUSH1 0x0 MSTORE PUSH1 0x22 PUSH1 0x4 MSTORE PUSH1 0x24 PUSH1 0x0 REVERT JUMPDEST POP SWAP2 SWAP1 POP JUMP JUMPDEST PUSH1 0x1F DUP3 GT ISZERO PUSH3 0x1F3 JUMPI PUSH1 0x0 DUP2 PUSH1 0x0 MSTORE PUSH1 0x20 PUSH1 0x0 KECCAK256 PUSH1 0x1F DUP6 ADD PUSH1 0x5 SHR DUP2 ADD PUSH1 0x20 DUP7 LT ISZERO PUSH3 0x1CE JUMPI POP DUP1 JUMPDEST PUSH1 0x1F DUP6 ADD PUSH1 0x5 SHR DUP3 ADD SWAP2 POP JUMPDEST DUP2 DUP2 LT ISZERO PUSH3 0x1EF JUMPI DUP3 DUP2 SSTORE PUSH1 0x1 ADD PUSH3 0x1DA JUMP JUMPDEST POP POP POP JUMPDEST POP POP POP JUMP JUMPDEST DUP2 MLOAD PUSH1 0x1 PUSH1 0x1 PUSH1 0x40 SHL SUB DUP2 GT ISZERO PUSH3 0x214 JUMPI PUSH3 0x214 PUSH3 0x151 JUMP JUMPDEST PUSH3 0x22C DUP2 PUSH3 0x225 DUP5 SLOAD PUSH3 0x167 JUMP JUMPDEST DUP5 PUSH3 0x1A3 JUMP JUMPDEST PUSH1 0x20 DUP1 PUSH1 0x1F DUP4 GT PUSH1 0x1 DUP2 EQ PUSH3 0x264 JUMPI PUSH1 0x0 DUP5 ISZERO PUSH3 0x24B JUMPI POP DUP6 DUP4 ADD MLOAD JUMPDEST PUSH1 0x0 NOT PUSH1 0x3 DUP7 SWAP1 SHL SHR NOT AND PUSH1 0x1 DUP6 SWAP1 SHL OR DUP6 SSTORE PUSH3 0x1EF JUMP JUMPDEST PUSH1 0x0 DUP6 DUP2 MSTORE PUSH1 0x20 DUP2 KECCAK256 PUSH1 0x1F NOT DUP7 AND SWAP2 JUMPDEST DUP3 DUP2 LT ISZERO PUSH3 0x295 JUMPI DUP9 DUP7 ADD MLOAD DUP3 SSTORE SWAP5 DUP5 ADD SWAP5 PUSH1 0x1 SWAP1 SWAP2 ADD SWAP1 DUP5 ADD PUSH3 0x274 JUMP JUMPDEST POP DUP6 DUP3 LT ISZERO PUSH3 0x2B4 JUMPI DUP8 DUP6 ADD MLOAD PUSH1 0x0 NOT PUSH1 0x3 DUP9 SWAP1 SHL PUSH1 0xF8 AND SHR NOT AND DUP2 SSTORE JUMPDEST POP POP POP POP POP PUSH1 0x1 SWAP1 DUP2 SHL ADD SWAP1 SSTORE POP JUMP JUMPDEST PUSH1 0x80 MLOAD PUSH2 0xF1C PUSH3 0x2E7 PUSH1 0x0 CODECOPY PUSH1 0x0 DUP2 DUP2 PUSH2 0x1F9 ADD MSTORE PUSH2 0xB7C ADD MSTORE PUSH2 0xF1C PUSH1 0x0 RETURN INVALID PUSH1 0x80 PUSH1 0x40 MSTORE CALLVALUE DUP1 ISZERO PUSH2 0x10 JUMPI PUSH1 0x0 DUP1 REVERT JUMPDEST POP PUSH1 0x4 CALLDATASIZE LT PUSH2 0x158 JUMPI PUSH1 0x0 CALLDATALOAD PUSH1 0xE0 SHR DUP1 PUSH4 0x5C975ABB GT PUSH2 0xC3 JUMPI DUP1 PUSH4 0x95D89B41 GT PUSH2 0x7C JUMPI DUP1 PUSH4 0x95D89B41 EQ PUSH2 0x2CD JUMPI DUP1 PUSH4 0xA9059CBB EQ PUSH2 0x2D5 JUMPI DUP1 PUSH4 0xDD3CED63 EQ PUSH2 0x2E8 JUMPI DUP1 PUSH4 0xDD62ED3E EQ PUSH2 0x337 JUMPI DUP1 PUSH4 0xE525907F EQ PUSH2 0x370 JUMPI DUP1 PUSH4 0xF2FDE38B EQ PUSH2 0x383 JUMPI PUSH1 0x0 DUP1 REVERT JUMPDEST DUP1 PUSH4 0x5C975ABB EQ PUSH2 0x24D JUMPI DUP1 PUSH4 0x70A08231 EQ PUSH2 0x258 JUMPI DUP1 PUSH4 0x715018A6 EQ PUSH2 0x281 JUMPI DUP1 PUSH4 0x79CC6790 EQ PUSH2 0x289 JUMPI DUP1 PUSH4 0x8456CB59 EQ PUSH2 0x29C JUMPI DUP1 PUSH4 0x8DA5CB5B EQ PUSH2 0x2A4 JUMPI PUSH1 0x0 DUP1 REVERT JUMPDEST DUP1 PUSH4 0x313CE567 GT PUSH2 0x115 JUMPI DUP1 PUSH4 0x313CE567 EQ PUSH2 0x1DE JUMPI DUP1 PUSH4 0x32CB6B0C EQ PUSH2 0x1ED JUMPI DUP1 PUSH4 0x355274EA EQ PUSH2 0x1F7 JUMPI DUP1 PUSH4 0x3F4BA83A EQ PUSH2 0x21D JUMPI DUP1 PUSH4 0x42966C68 EQ PUSH2 0x227 JUMPI DUP1 PUSH4 0x5C342AE8 EQ PUSH2 0x23A JUMPI PUSH1 0x0 DUP1 REVERT JUMPDEST DUP1 PUSH4 0x1110687 EQ PUSH2 0x15D JUMPI DUP1 PUSH4 0x6FDDE03 EQ PUSH2 0x178 JUMPI DUP1 PUSH4 0x95EA7B3 EQ PUSH2 0x18D JUMPI DUP1 PUSH4 0x18160DDD EQ PUSH2 0x1B0 JUMPI DUP1 PUSH4 0x23B872DD EQ PUSH2 0x1B8 JUMPI DUP1 PUSH4 0x2C4336F8 EQ PUSH2 0x1CB JUMPI JUMPDEST PUSH1 0x0 DUP1 REVERT JUMPDEST PUSH2 0x165 PUSH1 0xA DUP2 JUMP JUMPDEST PUSH1 0x40 MLOAD SWAP1 DUP2 MSTORE PUSH1 0x20 ADD JUMPDEST PUSH1 0x40 MLOAD DUP1 SWAP2 SUB SWAP1 RETURN JUMPDEST PUSH2 0x180 PUSH2 0x396 JUMP JUMPDEST PUSH1 0x40 MLOAD PUSH2 0x16F SWAP2 SWAP1 PUSH2 0xCF8 JUMP JUMPDEST PUSH2 0x1A0 PUSH2 0x19B CALLDATASIZE PUSH1 0x4 PUSH2 0xD63 JUMP JUMPDEST PUSH2 0x428 JUMP JUMPDEST PUSH1 0x40 MLOAD SWAP1 ISZERO ISZERO DUP2 MSTORE PUSH1 0x20 ADD PUSH2 0x16F JUMP JUMPDEST PUSH1 0x2 SLOAD PUSH2 0x165 JUMP JUMPDEST PUSH2 0x1A0 PUSH2 0x1C6 CALLDATASIZE PUSH1 0x4 PUSH2 0xD8D JUMP JUMPDEST PUSH2 0x442 JUMP JUMPDEST PUSH2 0x165 PUSH2 0x1D9 CALLDATASIZE PUSH1 0x4 PUSH2 0xDC9 JUMP JUMPDEST PUSH2 0x466 JUMP JUMPDEST PUSH1 0x40 MLOAD PUSH1 0x0 DUP2 MSTORE PUSH1 0x20 ADD PUSH2 0x16F JUMP JUMPDEST PUSH2 0x165 PUSH3 0xF4240 DUP2 JUMP JUMPDEST PUSH32 0x0 PUSH2 0x165 JUMP JUMPDEST PUSH2 0x225 PUSH2 0x511 JUMP JUMPDEST STOP JUMPDEST PUSH2 0x225 PUSH2 0x235 CALLDATASIZE PUSH1 0x4 PUSH2 0xDEB JUMP JUMPDEST PUSH2 0x523 JUMP JUMPDEST PUSH2 0x165 PUSH2 0x248 CALLDATASIZE PUSH1 0x4 PUSH2 0xDC9 JUMP JUMPDEST PUSH2 0x530 JUMP JUMPDEST PUSH1 0x5 SLOAD PUSH1 0xFF AND PUSH2 0x1A0 JUMP JUMPDEST PUSH2 0x165 PUSH2 0x266 CALLDATASIZE PUSH1 0x4 PUSH2 0xDC9 JUMP JUMPDEST PUSH1 0x1 PUSH1 0x1 PUSH1 0xA0 SHL SUB AND PUSH1 0x0 SWAP1 DUP2 MSTORE PUSH1 0x20 DUP2 SWAP1 MSTORE PUSH1 0x40 SWAP1 KECCAK256 SLOAD SWAP1 JUMP JUMPDEST PUSH2 0x225 PUSH2 0x619 JUMP JUMPDEST PUSH2 0x225 PUSH2 0x297 CALLDATASIZE PUSH1 0x4 PUSH2 0xD63 JUMP JUMPDEST PUSH2 0x62B JUMP JUMPDEST PUSH2 0x225 PUSH2 0x644 JUMP JUMPDEST PUSH1 0x5 SLOAD PUSH2 0x100 SWAP1 DIV PUSH1 0x1 PUSH1 0x1 PUSH1 0xA0 SHL SUB AND PUSH1 0x40 MLOAD PUSH1 0x1 PUSH1 0x1 PUSH1 0xA0 SHL SUB SWAP1 SWAP2 AND DUP2 MSTORE PUSH1 0x20 ADD PUSH2 0x16F JUMP JUMPDEST PUSH2 0x180 PUSH2 0x654 JUMP JUMPDEST PUSH2 0x1A0 PUSH2 0x2E3 CALLDATASIZE PUSH1 0x4 PUSH2 0xD63 JUMP JUMPDEST PUSH2 0x663 JUMP JUMPDEST PUSH2 0x319 PUSH2 0x2F6 CALLDATASIZE PUSH1 0x4 PUSH2 0xDC9 JUMP JUMPDEST PUSH1 0x6 PUSH1 0x20 MSTORE PUSH1 0x0 SWAP1 DUP2 MSTORE PUSH1 0x40 SWAP1 KECCAK256 DUP1 SLOAD PUSH1 0x1 SWAP1 SWAP2 ADD SLOAD PUSH8 0xFFFFFFFFFFFFFFFF AND DUP3 JUMP JUMPDEST PUSH1 0x40 DUP1 MLOAD SWAP3 DUP4 MSTORE PUSH8 0xFFFFFFFFFFFFFFFF SWAP1 SWAP2 AND PUSH1 0x20 DUP4 ADD MSTORE ADD PUSH2 0x16F JUMP JUMPDEST PUSH2 0x165 PUSH2 0x345 CALLDATASIZE PUSH1 0x4 PUSH2 0xE04 JUMP JUMPDEST PUSH1 0x1 PUSH1 0x1 PUSH1 0xA0 SHL SUB SWAP2 DUP3 AND PUSH1 0x0 SWAP1 DUP2 MSTORE PUSH1 0x1 PUSH1 0x20 SWAP1 DUP2 MSTORE PUSH1 0x40 DUP1 DUP4 KECCAK256 SWAP4 SWAP1 SWAP5 AND DUP3 MSTORE SWAP2 SWAP1 SWAP2 MSTORE KECCAK256 SLOAD SWAP1 JUMP JUMPDEST PUSH2 0x225 PUSH2 0x37E CALLDATASIZE PUSH1 0x4 PUSH2 0xD63 JUMP JUMPDEST PUSH2 0x671 JUMP JUMPDEST PUSH2 0x225 PUSH2 0x391 CALLDATASIZE PUSH1 0x4 PUSH2 0xDC9 JUMP JUMPDEST PUSH2 0x77C JUMP JUMPDEST PUSH1 0x60 PUSH1 0x3 DUP1 SLOAD PUSH2 0x3A5 SWAP1 PUSH2 0xE37 JUMP JUMPDEST DUP1 PUSH1 0x1F ADD PUSH1 0x20 DUP1 SWAP2 DIV MUL PUSH1 0x20 ADD PUSH1 0x40 MLOAD SWAP1 DUP2 ADD PUSH1 0x40 MSTORE DUP1 SWAP3 SWAP2 SWAP1 DUP2 DUP2 MSTORE PUSH1 0x20 ADD DUP3 DUP1 SLOAD PUSH2 0x3D1 SWAP1 PUSH2 0xE37 JUMP JUMPDEST DUP1 ISZERO PUSH2 0x41E JUMPI DUP1 PUSH1 0x1F LT PUSH2 0x3F3 JUMPI PUSH2 0x100 DUP1 DUP4 SLOAD DIV MUL DUP4 MSTORE SWAP2 PUSH1 0x20 ADD SWAP2 PUSH2 0x41E JUMP JUMPDEST DUP3 ADD SWAP2 SWAP1 PUSH1 0x0 MSTORE PUSH1 0x20 PUSH1 0x0 KECCAK256 SWAP1 JUMPDEST DUP2 SLOAD DUP2 MSTORE SWAP1 PUSH1 0x1 ADD SWAP1 PUSH1 0x20 ADD DUP1 DUP4 GT PUSH2 0x401 JUMPI DUP3 SWAP1 SUB PUSH1 0x1F AND DUP3 ADD SWAP2 JUMPDEST POP POP POP POP POP SWAP1 POP SWAP1 JUMP JUMPDEST PUSH1 0x0 CALLER PUSH2 0x436 DUP2 DUP6 DUP6 PUSH2 0x7B7 JUMP JUMPDEST PUSH1 0x1 SWAP2 POP POP JUMPDEST SWAP3 SWAP2 POP POP JUMP JUMPDEST PUSH1 0x0 CALLER PUSH2 0x450 DUP6 DUP3 DUP6 PUSH2 0x7C4 JUMP JUMPDEST PUSH2 0x45B DUP6 DUP6 DUP6 PUSH2 0x842 JUMP JUMPDEST POP PUSH1 0x1 SWAP5 SWAP4 POP POP POP POP JUMP JUMPDEST PUSH1 0x1 PUSH1 0x1 PUSH1 0xA0 SHL SUB DUP2 AND PUSH1 0x0 SWAP1 DUP2 MSTORE PUSH1 0x6 PUSH1 0x20 SWAP1 DUP2 MSTORE PUSH1 0x40 DUP1 DUP4 KECCAK256 DUP2 MLOAD DUP1 DUP4 ADD SWAP1 SWAP3 MSTORE DUP1 SLOAD DUP3 MSTORE PUSH1 0x1 ADD SLOAD PUSH8 0xFFFFFFFFFFFFFFFF AND SWAP2 DUP2 ADD DUP3 SWAP1 MSTORE SWAP1 ISZERO DUP1 PUSH2 0x4AD JUMPI POP DUP1 MLOAD ISZERO JUMPDEST ISZERO PUSH2 0x4BB JUMPI POP PUSH1 0x0 SWAP3 SWAP2 POP POP JUMP JUMPDEST PUSH1 0x0 DUP2 PUSH1 0x20 ADD MLOAD PUSH8 0xFFFFFFFFFFFFFFFF AND TIMESTAMP PUSH2 0x4D7 SWAP2 SWAP1 PUSH2 0xE87 JUMP JUMPDEST SWAP1 POP PUSH4 0x784CE00 DUP2 LT ISZERO PUSH2 0x4EF JUMPI POP PUSH1 0x0 SWAP4 SWAP3 POP POP POP JUMP JUMPDEST DUP2 MLOAD PUSH1 0x64 SWAP1 PUSH2 0x4FF SWAP1 PUSH1 0xA PUSH2 0xE9A JUMP JUMPDEST PUSH2 0x509 SWAP2 SWAP1 PUSH2 0xEB1 JUMP JUMPDEST SWAP5 SWAP4 POP POP POP POP JUMP JUMPDEST PUSH2 0x519 PUSH2 0x8A1 JUMP JUMPDEST PUSH2 0x521 PUSH2 0x8D4 JUMP JUMPDEST JUMP JUMPDEST PUSH2 0x52D CALLER DUP3 PUSH2 0x926 JUMP JUMPDEST POP JUMP JUMPDEST PUSH1 0x1 PUSH1 0x1 PUSH1 0xA0 SHL SUB DUP2 AND PUSH1 0x0 SWAP1 DUP2 MSTORE PUSH1 0x6 PUSH1 0x20 SWAP1 DUP2 MSTORE PUSH1 0x40 DUP1 DUP4 KECCAK256 DUP2 MLOAD DUP1 DUP4 ADD SWAP1 SWAP3 MSTORE DUP1 SLOAD DUP3 MSTORE PUSH1 0x1 ADD SLOAD PUSH8 0xFFFFFFFFFFFFFFFF AND SWAP2 DUP2 ADD DUP3 SWAP1 MSTORE SWAP1 DUP3 SUB PUSH2 0x57C JUMPI POP PUSH2 0x2710 SWAP3 SWAP2 POP POP JUMP JUMPDEST PUSH1 0x0 DUP2 PUSH1 0x20 ADD MLOAD PUSH8 0xFFFFFFFFFFFFFFFF AND TIMESTAMP PUSH2 0x598 SWAP2 SWAP1 PUSH2 0xE87 JUMP JUMPDEST SWAP1 POP PUSH4 0x1E13380 DUP1 DUP3 LT ISZERO PUSH2 0x5B3 JUMPI POP PUSH2 0x2710 SWAP5 SWAP4 POP POP POP POP JUMP JUMPDEST PUSH2 0x5BE DUP2 PUSH1 0x2 PUSH2 0xE9A JUMP JUMPDEST DUP3 LT ISZERO PUSH2 0x5D1 JUMPI POP PUSH2 0x2904 SWAP5 SWAP4 POP POP POP POP JUMP JUMPDEST PUSH2 0x5DC DUP2 PUSH1 0x3 PUSH2 0xE9A JUMP JUMPDEST DUP3 LT ISZERO PUSH2 0x5EF JUMPI POP PUSH2 0x2AF8 SWAP5 SWAP4 POP POP POP POP JUMP JUMPDEST PUSH2 0x5FA DUP2 PUSH1 0x4 PUSH2 0xE9A JUMP JUMPDEST DUP3 LT ISZERO PUSH2 0x60D JUMPI POP PUSH2 0x2CEC SWAP5 SWAP4 POP POP POP POP JUMP JUMPDEST POP PUSH2 0x2EE0 SWAP5 SWAP4 POP POP POP POP JUMP JUMPDEST PUSH2 0x621 PUSH2 0x8A1 JUMP JUMPDEST PUSH2 0x521 PUSH1 0x0 PUSH2 0x95C JUMP JUMPDEST PUSH2 0x636 DUP3 CALLER DUP4 PUSH2 0x7C4 JUMP JUMPDEST PUSH2 0x640 DUP3 DUP3 PUSH2 0x926 JUMP JUMPDEST POP POP JUMP JUMPDEST PUSH2 0x64C PUSH2 0x8A1 JUMP JUMPDEST PUSH2 0x521 PUSH2 0x9B6 JUMP JUMPDEST PUSH1 0x60 PUSH1 0x4 DUP1 SLOAD PUSH2 0x3A5 SWAP1 PUSH2 0xE37 JUMP JUMPDEST PUSH1 0x0 CALLER PUSH2 0x436 DUP2 DUP6 DUP6 PUSH2 0x842 JUMP JUMPDEST PUSH2 0x679 PUSH2 0x8A1 JUMP JUMPDEST PUSH1 0x1 PUSH1 0x1 PUSH1 0xA0 SHL SUB DUP3 AND PUSH2 0x6C7 JUMPI PUSH1 0x40 MLOAD PUSH3 0x461BCD PUSH1 0xE5 SHL DUP2 MSTORE PUSH1 0x20 PUSH1 0x4 DUP3 ADD MSTORE PUSH1 0x10 PUSH1 0x24 DUP3 ADD MSTORE PUSH16 0x44657374696E6F20696E76616C69646F PUSH1 0x80 SHL PUSH1 0x44 DUP3 ADD MSTORE PUSH1 0x64 ADD JUMPDEST PUSH1 0x40 MLOAD DUP1 SWAP2 SUB SWAP1 REVERT JUMPDEST PUSH1 0x0 DUP2 GT PUSH2 0x706 JUMPI PUSH1 0x40 MLOAD PUSH3 0x461BCD PUSH1 0xE5 SHL DUP2 MSTORE PUSH1 0x20 PUSH1 0x4 DUP3 ADD MSTORE PUSH1 0xC PUSH1 0x24 DUP3 ADD MSTORE PUSH12 0x43616E7469646164203E203 PUSH1 0xA4 SHL PUSH1 0x44 DUP3 ADD MSTORE PUSH1 0x64 ADD PUSH2 0x6BE JUMP JUMPDEST PUSH2 0x710 DUP3 DUP3 PUSH2 0x9F3 JUMP JUMPDEST PUSH1 0x1 PUSH1 0x1 PUSH1 0xA0 SHL SUB DUP3 AND PUSH1 0x0 SWAP1 DUP2 MSTORE PUSH1 0x6 PUSH1 0x20 MSTORE PUSH1 0x40 DUP2 KECCAK256 DUP1 SLOAD SWAP1 SWAP2 DUP4 SWAP2 DUP4 SWAP2 SWAP1 PUSH2 0x73C SWAP1 DUP5 SWAP1 PUSH2 0xED3 JUMP JUMPDEST SWAP1 SWAP2 SSTORE POP POP PUSH1 0x1 DUP2 ADD SLOAD PUSH8 0xFFFFFFFFFFFFFFFF AND PUSH1 0x0 SUB PUSH2 0x777 JUMPI PUSH1 0x1 DUP2 ADD DUP1 SLOAD PUSH8 0xFFFFFFFFFFFFFFFF NOT AND TIMESTAMP PUSH8 0xFFFFFFFFFFFFFFFF AND OR SWAP1 SSTORE JUMPDEST POP POP POP JUMP JUMPDEST PUSH2 0x784 PUSH2 0x8A1 JUMP JUMPDEST PUSH1 0x1 PUSH1 0x1 PUSH1 0xA0 SHL SUB DUP2 AND PUSH2 0x7AE JUMPI PUSH1 0x40 MLOAD PUSH4 0x1E4FBDF7 PUSH1 0xE0 SHL DUP2 MSTORE PUSH1 0x0 PUSH1 0x4 DUP3 ADD MSTORE PUSH1 0x24 ADD PUSH2 0x6BE JUMP JUMPDEST PUSH2 0x52D DUP2 PUSH2 0x95C JUMP JUMPDEST PUSH2 0x777 DUP4 DUP4 DUP4 PUSH1 0x1 PUSH2 0xA29 JUMP JUMPDEST PUSH1 0x1 PUSH1 0x1 PUSH1 0xA0 SHL SUB DUP4 DUP2 AND PUSH1 0x0 SWAP1 DUP2 MSTORE PUSH1 0x1 PUSH1 0x20 SWAP1 DUP2 MSTORE PUSH1 0x40 DUP1 DUP4 KECCAK256 SWAP4 DUP7 AND DUP4 MSTORE SWAP3 SWAP1 MSTORE KECCAK256 SLOAD PUSH1 0x0 NOT DUP2 EQ PUSH2 0x83C JUMPI DUP2 DUP2 LT ISZERO PUSH2 0x82D JUMPI PUSH1 0x40 MLOAD PUSH4 0x7DC7A0D9 PUSH1 0xE1 SHL DUP2 MSTORE PUSH1 0x1 PUSH1 0x1 PUSH1 0xA0 SHL SUB DUP5 AND PUSH1 0x4 DUP3 ADD MSTORE PUSH1 0x24 DUP2 ADD DUP3 SWAP1 MSTORE PUSH1 0x44 DUP2 ADD DUP4 SWAP1 MSTORE PUSH1 0x64 ADD PUSH2 0x6BE JUMP JUMPDEST PUSH2 0x83C DUP5 DUP5 DUP5 DUP5 SUB PUSH1 0x0 PUSH2 0xA29 JUMP JUMPDEST POP POP POP POP JUMP JUMPDEST PUSH1 0x1 PUSH1 0x1 PUSH1 0xA0 SHL SUB DUP4 AND PUSH2 0x86C JUMPI PUSH1 0x40 MLOAD PUSH4 0x4B637E8F PUSH1 0xE1 SHL DUP2 MSTORE PUSH1 0x0 PUSH1 0x4 DUP3 ADD MSTORE PUSH1 0x24 ADD PUSH2 0x6BE JUMP JUMPDEST PUSH1 0x1 PUSH1 0x1 PUSH1 0xA0 SHL SUB DUP3 AND PUSH2 0x896 JUMPI PUSH1 0x40 MLOAD PUSH4 0xEC442F05 PUSH1 0xE0 SHL DUP2 MSTORE PUSH1 0x0 PUSH1 0x4 DUP3 ADD MSTORE PUSH1 0x24 ADD PUSH2 0x6BE JUMP JUMPDEST PUSH2 0x777 DUP4 DUP4 DUP4 PUSH2 0xAFE JUMP JUMPDEST PUSH1 0x5 SLOAD PUSH1 0x1 PUSH1 0x1 PUSH1 0xA0 SHL SUB PUSH2 0x100 SWAP1 SWAP2 DIV AND CALLER EQ PUSH2 0x521 JUMPI PUSH1 0x40 MLOAD PUSH4 0x118CDAA7 PUSH1 0xE0 SHL DUP2 MSTORE CALLER PUSH1 0x4 DUP3 ADD MSTORE PUSH1 0x24 ADD PUSH2 0x6BE JUMP JUMPDEST PUSH2 0x8DC PUSH2 0xB09 JUMP JUMPDEST PUSH1 0x5 DUP1 SLOAD PUSH1 0xFF NOT AND SWAP1 SSTORE PUSH32 0x5DB9EE0A495BF2E6FF9C91A7834C1BA4FDD244A5E8AA4E537BD38AEAE4B073AA CALLER JUMPDEST PUSH1 0x40 MLOAD PUSH1 0x1 PUSH1 0x1 PUSH1 0xA0 SHL SUB SWAP1 SWAP2 AND DUP2 MSTORE PUSH1 0x20 ADD PUSH1 0x40 MLOAD DUP1 SWAP2 SUB SWAP1 LOG1 JUMP JUMPDEST PUSH1 0x1 PUSH1 0x1 PUSH1 0xA0 SHL SUB DUP3 AND PUSH2 0x950 JUMPI PUSH1 0x40 MLOAD PUSH4 0x4B637E8F PUSH1 0xE1 SHL DUP2 MSTORE PUSH1 0x0 PUSH1 0x4 DUP3 ADD MSTORE PUSH1 0x24 ADD PUSH2 0x6BE JUMP JUMPDEST PUSH2 0x640 DUP3 PUSH1 0x0 DUP4 PUSH2 0xAFE JUMP JUMPDEST PUSH1 0x5 DUP1 SLOAD PUSH1 0x1 PUSH1 0x1 PUSH1 0xA0 SHL SUB DUP4 DUP2 AND PUSH2 0x100 DUP2 DUP2 MUL PUSH2 0x100 PUSH1 0x1 PUSH1 0xA8 SHL SUB NOT DUP6 AND OR SWAP1 SWAP5 SSTORE PUSH1 0x40 MLOAD SWAP4 SWAP1 SWAP3 DIV AND SWAP2 DUP3 SWAP1 PUSH32 0x8BE0079C531659141344CD1FD0A4F28419497F9722A3DAAFE3B4186F6B6457E0 SWAP1 PUSH1 0x0 SWAP1 LOG3 POP POP JUMP JUMPDEST PUSH2 0x9BE PUSH2 0xB2C JUMP JUMPDEST PUSH1 0x5 DUP1 SLOAD PUSH1 0xFF NOT AND PUSH1 0x1 OR SWAP1 SSTORE PUSH32 0x62E78CEA01BEE320CD4E420270B5EA74000D11B0C9F74754EBDBFC544B05A258 PUSH2 0x909 CALLER SWAP1 JUMP JUMPDEST PUSH1 0x1 PUSH1 0x1 PUSH1 0xA0 SHL SUB DUP3 AND PUSH2 0xA1D JUMPI PUSH1 0x40 MLOAD PUSH4 0xEC442F05 PUSH1 0xE0 SHL DUP2 MSTORE PUSH1 0x0 PUSH1 0x4 DUP3 ADD MSTORE PUSH1 0x24 ADD PUSH2 0x6BE JUMP JUMPDEST PUSH2 0x640 PUSH1 0x0 DUP4 DUP4 PUSH2 0xAFE JUMP JUMPDEST PUSH1 0x1 PUSH1 0x1 PUSH1 0xA0 SHL SUB DUP5 AND PUSH2 0xA53 JUMPI PUSH1 0x40 MLOAD PUSH4 0xE602DF05 PUSH1 0xE0 SHL DUP2 MSTORE PUSH1 0x0 PUSH1 0x4 DUP3 ADD MSTORE PUSH1 0x24 ADD PUSH2 0x6BE JUMP JUMPDEST PUSH1 0x1 PUSH1 0x1 PUSH1 0xA0 SHL SUB DUP4 AND PUSH2 0xA7D JUMPI PUSH1 0x40 MLOAD PUSH4 0x4A1406B1 PUSH1 0xE1 SHL DUP2 MSTORE PUSH1 0x0 PUSH1 0x4 DUP3 ADD MSTORE PUSH1 0x24 ADD PUSH2 0x6BE JUMP JUMPDEST PUSH1 0x1 PUSH1 0x1 PUSH1 0xA0 SHL SUB DUP1 DUP6 AND PUSH1 0x0 SWAP1 DUP2 MSTORE PUSH1 0x1 PUSH1 0x20 SWAP1 DUP2 MSTORE PUSH1 0x40 DUP1 DUP4 KECCAK256 SWAP4 DUP8 AND DUP4 MSTORE SWAP3 SWAP1 MSTORE KECCAK256 DUP3 SWAP1 SSTORE DUP1 ISZERO PUSH2 0x83C JUMPI DUP3 PUSH1 0x1 PUSH1 0x1 PUSH1 0xA0 SHL SUB AND DUP5 PUSH1 0x1 PUSH1 0x1 PUSH1 0xA0 SHL SUB AND PUSH32 0x8C5BE1E5EBEC7D5BD14F71427D1E84F3DD0314C0F7B2291E5B200AC8C7C3B925 DUP5 PUSH1 0x40 MLOAD PUSH2 0xAF0 SWAP2 DUP2 MSTORE PUSH1 0x20 ADD SWAP1 JUMP JUMPDEST PUSH1 0x40 MLOAD DUP1 SWAP2 SUB SWAP1 LOG3 POP POP POP POP JUMP JUMPDEST PUSH2 0x777 DUP4 DUP4 DUP4 PUSH2 0xB50 JUMP JUMPDEST PUSH1 0x5 SLOAD PUSH1 0xFF AND PUSH2 0x521 JUMPI PUSH1 0x40 MLOAD PUSH4 0x8DFC202B PUSH1 0xE0 SHL DUP2 MSTORE PUSH1 0x4 ADD PUSH1 0x40 MLOAD DUP1 SWAP2 SUB SWAP1 REVERT JUMPDEST PUSH1 0x5 SLOAD PUSH1 0xFF AND ISZERO PUSH2 0x521 JUMPI PUSH1 0x40 MLOAD PUSH4 0xD93C0665 PUSH1 0xE0 SHL DUP2 MSTORE PUSH1 0x4 ADD PUSH1 0x40 MLOAD DUP1 SWAP2 SUB SWAP1 REVERT JUMPDEST PUSH2 0xB58 PUSH2 0xB2C JUMP JUMPDEST PUSH2 0x777 DUP4 DUP4 DUP4 PUSH2 0xB69 DUP4 DUP4 DUP4 PUSH2 0xBCE JUMP JUMPDEST PUSH1 0x1 PUSH1 0x1 PUSH1 0xA0 SHL SUB DUP4 AND PUSH2 0x777 JUMPI PUSH1 0x2 SLOAD PUSH32 0x0 SWAP1 DUP2 DUP2 GT ISZERO PUSH2 0xBC7 JUMPI PUSH1 0x40 MLOAD PUSH4 0x279E7E15 PUSH1 0xE2 SHL DUP2 MSTORE PUSH1 0x4 DUP2 ADD DUP3 SWAP1 MSTORE PUSH1 0x24 DUP2 ADD DUP4 SWAP1 MSTORE PUSH1 0x44 ADD PUSH2 0x6BE JUMP JUMPDEST POP POP POP POP POP JUMP JUMPDEST PUSH1 0x1 PUSH1 0x1 PUSH1 0xA0 SHL SUB DUP4 AND PUSH2 0xBF9 JUMPI DUP1 PUSH1 0x2 PUSH1 0x0 DUP3 DUP3 SLOAD PUSH2 0xBEE SWAP2 SWAP1 PUSH2 0xED3 JUMP JUMPDEST SWAP1 SWAP2 SSTORE POP PUSH2 0xC6B SWAP1 POP JUMP JUMPDEST PUSH1 0x1 PUSH1 0x1 PUSH1 0xA0 SHL SUB DUP4 AND PUSH1 0x0 SWAP1 DUP2 MSTORE PUSH1 0x20 DUP2 SWAP1 MSTORE PUSH1 0x40 SWAP1 KECCAK256 SLOAD DUP2 DUP2 LT ISZERO PUSH2 0xC4C JUMPI PUSH1 0x40 MLOAD PUSH4 0x391434E3 PUSH1 0xE2 SHL DUP2 MSTORE PUSH1 0x1 PUSH1 0x1 PUSH1 0xA0 SHL SUB DUP6 AND PUSH1 0x4 DUP3 ADD MSTORE PUSH1 0x24 DUP2 ADD DUP3 SWAP1 MSTORE PUSH1 0x44 DUP2 ADD DUP4 SWAP1 MSTORE PUSH1 0x64 ADD PUSH2 0x6BE JUMP JUMPDEST PUSH1 0x1 PUSH1 0x1 PUSH1 0xA0 SHL SUB DUP5 AND PUSH1 0x0 SWAP1 DUP2 MSTORE PUSH1 0x20 DUP2 SWAP1 MSTORE PUSH1 0x40 SWAP1 KECCAK256 SWAP1 DUP3 SWAP1 SUB SWAP1 SSTORE JUMPDEST PUSH1 0x1 PUSH1 0x1 PUSH1 0xA0 SHL SUB DUP3 AND PUSH2 0xC87 JUMPI PUSH1 0x2 DUP1 SLOAD DUP3 SWAP1 SUB SWAP1 SSTORE PUSH2 0xCA6 JUMP JUMPDEST PUSH1 0x1 PUSH1 0x1 PUSH1 0xA0 SHL SUB DUP3 AND PUSH1 0x0 SWAP1 DUP2 MSTORE PUSH1 0x20 DUP2 SWAP1 MSTORE PUSH1 0x40 SWAP1 KECCAK256 DUP1 SLOAD DUP3 ADD SWAP1 SSTORE JUMPDEST DUP2 PUSH1 0x1 PUSH1 0x1 PUSH1 0xA0 SHL SUB AND DUP4 PUSH1 0x1 PUSH1 0x1 PUSH1 0xA0 SHL SUB AND PUSH32 0xDDF252AD1BE2C89B69C2B068FC378DAA952BA7F163C4A11628F55A4DF523B3EF DUP4 PUSH1 0x40 MLOAD PUSH2 0xCEB SWAP2 DUP2 MSTORE PUSH1 0x20 ADD SWAP1 JUMP JUMPDEST PUSH1 0x40 MLOAD DUP1 SWAP2 SUB SWAP1 LOG3 POP POP POP JUMP JUMPDEST PUSH1 0x0 PUSH1 0x20 DUP1 DUP4 MSTORE DUP4 MLOAD DUP1 PUSH1 0x20 DUP6 ADD MSTORE PUSH1 0x0 JUMPDEST DUP2 DUP2 LT ISZERO PUSH2 0xD26 JUMPI DUP6 DUP2 ADD DUP4 ADD MLOAD DUP6 DUP3 ADD PUSH1 0x40 ADD MSTORE DUP3 ADD PUSH2 0xD0A JUMP JUMPDEST POP PUSH1 0x0 PUSH1 0x40 DUP3 DUP7 ADD ADD MSTORE PUSH1 0x40 PUSH1 0x1F NOT PUSH1 0x1F DUP4 ADD AND DUP6 ADD ADD SWAP3 POP POP POP SWAP3 SWAP2 POP POP JUMP JUMPDEST DUP1 CALLDATALOAD PUSH1 0x1 PUSH1 0x1 PUSH1 0xA0 SHL SUB DUP2 AND DUP2 EQ PUSH2 0xD5E JUMPI PUSH1 0x0 DUP1 REVERT JUMPDEST SWAP2 SWAP1 POP JUMP JUMPDEST PUSH1 0x0 DUP1 PUSH1 0x40 DUP4 DUP6 SUB SLT ISZERO PUSH2 0xD76 JUMPI PUSH1 0x0 DUP1 REVERT JUMPDEST PUSH2 0xD7F DUP4 PUSH2 0xD47 JUMP JUMPDEST SWAP5 PUSH1 0x20 SWAP4 SWAP1 SWAP4 ADD CALLDATALOAD SWAP4 POP POP POP JUMP JUMPDEST PUSH1 0x0 DUP1 PUSH1 0x0 PUSH1 0x60 DUP5 DUP7 SUB SLT ISZERO PUSH2 0xDA2 JUMPI PUSH1 0x0 DUP1 REVERT JUMPDEST PUSH2 0xDAB DUP5 PUSH2 0xD47 JUMP JUMPDEST SWAP3 POP PUSH2 0xDB9 PUSH1 0x20 DUP6 ADD PUSH2 0xD47 JUMP JUMPDEST SWAP2 POP PUSH1 0x40 DUP5 ADD CALLDATALOAD SWAP1 POP SWAP3 POP SWAP3 POP SWAP3 JUMP JUMPDEST PUSH1 0x0 PUSH1 0x20 DUP3 DUP5 SUB SLT ISZERO PUSH2 0xDDB JUMPI PUSH1 0x0 DUP1 REVERT JUMPDEST PUSH2 0xDE4 DUP3 PUSH2 0xD47 JUMP JUMPDEST SWAP4 SWAP3 POP POP POP JUMP JUMPDEST PUSH1 0x0 PUSH1 0x20 DUP3 DUP5 SUB SLT ISZERO PUSH2 0xDFD JUMPI PUSH1 0x0 DUP1 REVERT JUMPDEST POP CALLDATALOAD SWAP2 SWAP1 POP JUMP JUMPDEST PUSH1 0x0 DUP1 PUSH1 0x40 DUP4 DUP6 SUB SLT ISZERO PUSH2 0xE17 JUMPI PUSH1 0x0 DUP1 REVERT JUMPDEST PUSH2 0xE20 DUP4 PUSH2 0xD47 JUMP JUMPDEST SWAP2 POP PUSH2 0xE2E PUSH1 0x20 DUP5 ADD PUSH2 0xD47 JUMP JUMPDEST SWAP1 POP SWAP3 POP SWAP3 SWAP1 POP JUMP JUMPDEST PUSH1 0x1 DUP2 DUP2 SHR SWAP1 DUP3 AND DUP1 PUSH2 0xE4B JUMPI PUSH1 0x7F DUP3 AND SWAP2 POP JUMPDEST PUSH1 0x20 DUP3 LT DUP2 SUB PUSH2 0xE6B JUMPI PUSH4 0x4E487B71 PUSH1 0xE0 SHL PUSH1 0x0 MSTORE PUSH1 0x22 PUSH1 0x4 MSTORE PUSH1 0x24 PUSH1 0x0 REVERT JUMPDEST POP SWAP2 SWAP1 POP JUMP JUMPDEST PUSH4 0x4E487B71 PUSH1 0xE0 SHL PUSH1 0x0 MSTORE PUSH1 0x11 PUSH1 0x4 MSTORE PUSH1 0x24 PUSH1 0x0 REVERT JUMPDEST DUP2 DUP2 SUB DUP2 DUP2 GT ISZERO PUSH2 0x43C JUMPI PUSH2 0x43C PUSH2 0xE71 JUMP JUMPDEST DUP1 DUP3 MUL DUP2 ISZERO DUP3 DUP3 DIV DUP5 EQ OR PUSH2 0x43C JUMPI PUSH2 0x43C PUSH2 0xE71 JUMP JUMPDEST PUSH1 0x0 DUP3 PUSH2 0xECE JUMPI PUSH4 0x4E487B71 PUSH1 0xE0 SHL PUSH1 0x0 MSTORE PUSH1 0x12 PUSH1 0x4 MSTORE PUSH1 0x24 PUSH1 0x0 REVERT JUMPDEST POP DIV SWAP1 JUMP JUMPDEST DUP1 DUP3 ADD DUP1 DUP3 GT ISZERO PUSH2 0x43C JUMPI PUSH2 0x43C PUSH2 0xE71 JUMP INVALID LOG2 PUSH5 0x6970667358 0x22 SLT KECCAK256 PUSH14 0x510CE222E78D1408A64FE0C3949D 0xB4 OR EXTCODECOPY DUP12 PUSH15 0x661F1054E1F177149E81ABBE64736F PUSH13 0x63430008180033000000000000 "},"methodIdentifiers":{"BASE_PRICE_UNITS()":"01110687","MAX_SUPPLY()":"32cb6b0c","allowance(address,address)":"dd62ed3e","approve(address,uint256)":"095ea7b3","balanceOf(address)":"70a08231","burn(uint256)":"42966c68","burnFrom(address,uint256)":"79cc6790","cap()":"355274ea","currentValueMultiplier(address)":"5c342ae8","decimals()":"313ce567","educationalMint(address,uint256)":"e525907f","holdings(address)":"dd3ced63","loyaltyBonusAmount(address)":"2c4336f8","name()":"06fdde03","owner()":"8da5cb5b","pause()":"8456cb59","paused()":"5c975abb","renounceOwnership()":"715018a6","symbol()":"95d89b41","totalSupply()":"18160ddd","transfer(address,uint256)":"a9059cbb","transferFrom(address,address,uint256)":"23b872dd","transferOwnership(address)":"f2fde38b","unpause()":"3f4ba83a"}}}}}