{
  "_format": "hh-sol-artifact-1",
  "contractName": "MMDVWineTokenV3",
  "sourceName": "contracts/MMDVWineTokenV3.sol",
  "abi": [
    {
      "inputs": [],
      "stateMutability": "nonpayable",
      "type": "constructor"
    },
    {
      "inputs": [
        {
          "internalType": "uint256",
          "name": "increasedSupply",
          "type": "uint256"
        },
        {
          "internalType": "uint256",
          "name": "cap",
          "type": "uint256"
        }
      ],
      "name": "ERC20ExceededCap",
      "type": "error"
    },
    {
      "inputs": [
        {
          "internalType": "address",
          "name": "spender",
          "type": "address"
        },
        {
          "internalType": "uint256",
          "name": "allowance",
          "type": "uint256"
        },
        {
          "internalType": "uint256",
          "name": "needed",
          "type": "uint256"
        }
      ],
      "name": "ERC20InsufficientAllowance",
      "type": "error"
    },
    {
      "inputs": [
        {
          "internalType": "address",
          "name": "sender",
          "type": "address"
        },
        {
          "internalType": "uint256",
          "name": "balance",
          "type": "uint256"
        },
        {
          "internalType": "uint256",
          "name": "needed",
          "type": "uint256"
        }
      ],
      "name": "ERC20InsufficientBalance",
      "type": "error"
    },
    {
      "inputs": [
        {
          "internalType": "address",
          "name": "approver",
          "type": "address"
        }
      ],
      "name": "ERC20InvalidApprover",
      "type": "error"
    },
    {
      "inputs": [
        {
          "internalType": "uint256",
          "name": "cap",
          "type": "uint256"
        }
      ],
      "name": "ERC20InvalidCap",
      "type": "error"
    },
    {
      "inputs": [
        {
          "internalType": "address",
          "name": "receiver",
          "type": "address"
        }
      ],
      "name": "ERC20InvalidReceiver",
      "type": "error"
    },
    {
      "inputs": [
        {
          "internalType": "address",
          "name": "sender",
          "type": "address"
        }
      ],
      "name": "ERC20InvalidSender",
      "type": "error"
    },
    {
      "inputs": [
        {
          "internalType": "address",
          "name": "spender",
          "type": "address"
        }
      ],
      "name": "ERC20InvalidSpender",
      "type": "error"
    },
    {
      "inputs": [],
      "name": "EnforcedPause",
      "type": "error"
    },
    {
      "inputs": [],
      "name": "ExpectedPause",
      "type": "error"
    },
    {
      "inputs": [
        {
          "internalType": "address",
          "name": "owner",
          "type": "address"
        }
      ],
      "name": "OwnableInvalidOwner",
      "type": "error"
    },
    {
      "inputs": [
        {
          "internalType": "address",
          "name": "account",
          "type": "address"
        }
      ],
      "name": "OwnableUnauthorizedAccount",
      "type": "error"
    },
    {
      "anonymous": false,
      "inputs": [
        {
          "indexed": true,
          "internalType": "address",
          "name": "owner",
          "type": "address"
        },
        {
          "indexed": true,
          "internalType": "address",
          "name": "spender",
          "type": "address"
        },
        {
          "indexed": false,
          "internalType": "uint256",
          "name": "value",
          "type": "uint256"
        }
      ],
      "name": "Approval",
      "type": "event"
    },
    {
      "anonymous": false,
      "inputs": [
        {
          "indexed": true,
          "internalType": "address",
          "name": "previousOwner",
          "type": "address"
        },
        {
          "indexed": true,
          "internalType": "address",
          "name": "newOwner",
          "type": "address"
        }
      ],
      "name": "OwnershipTransferred",
      "type": "event"
    },
    {
      "anonymous": false,
      "inputs": [
        {
          "indexed": false,
          "internalType": "address",
          "name": "account",
          "type": "address"
        }
      ],
      "name": "Paused",
      "type": "event"
    },
    {
      "anonymous": false,
      "inputs": [
        {
          "indexed": true,
          "internalType": "address",
          "name": "from",
          "type": "address"
        },
        {
          "indexed": true,
          "internalType": "address",
          "name": "to",
          "type": "address"
        },
        {
          "indexed": false,
          "internalType": "uint256",
          "name": "value",
          "type": "uint256"
        }
      ],
      "name": "Transfer",
      "type": "event"
    },
    {
      "anonymous": false,
      "inputs": [
        {
          "indexed": false,
          "internalType": "address",
          "name": "account",
          "type": "address"
        }
      ],
      "name": "Unpaused",
      "type": "event"
    },
    {
      "inputs": [],
      "name": "BASE_PRICE_UNITS",
      "outputs": [
        {
          "internalType": "uint256",
          "name": "",
          "type": "uint256"
        }
      ],
      "stateMutability": "view",
      "type": "function"
    },
    {
      "inputs": [],
      "name": "MAX_SUPPLY",
      "outputs": [
        {
          "internalType": "uint256",
          "name": "",
          "type": "uint256"
        }
      ],
      "stateMutability": "view",
      "type": "function"
    },
    {
      "inputs": [
        {
          "internalType": "address",
          "name": "owner",
          "type": "address"
        },
        {
          "internalType": "address",
          "name": "spender",
          "type": "address"
        }
      ],
      "name": "allowance",
      "outputs": [
        {
          "internalType": "uint256",
          "name": "",
          "type": "uint256"
        }
      ],
      "stateMutability": "view",
      "type": "function"
    },
    {
      "inputs": [
        {
          "internalType": "address",
          "name": "spender",
          "type": "address"
        },
        {
          "internalType": "uint256",
          "name": "value",
          "type": "uint256"
        }
      ],
      "name": "approve",
      "outputs": [
        {
          "internalType": "bool",
          "name": "",
          "type": "bool"
        }
      ],
      "stateMutability": "nonpayable",
      "type": "function"
    },
    {
      "inputs": [
        {
          "internalType": "address",
          "name": "account",
          "type": "address"
        }
      ],
      "name": "balanceOf",
      "outputs": [
        {
          "internalType": "uint256",
          "name": "",
          "type": "uint256"
        }
      ],
      "stateMutability": "view",
      "type": "function"
    },
    {
      "inputs": [
        {
          "internalType": "uint256",
          "name": "value",
          "type": "uint256"
        }
      ],
      "name": "burn",
      "outputs": [],
      "stateMutability": "nonpayable",
      "type": "function"
    },
    {
      "inputs": [
        {
          "internalType": "address",
          "name": "account",
          "type": "address"
        },
        {
          "internalType": "uint256",
          "name": "value",
          "type": "uint256"
        }
      ],
      "name": "burnFrom",
      "outputs": [],
      "stateMutability": "nonpayable",
      "type": "function"
    },
    {
      "inputs": [],
      "name": "cap",
      "outputs": [
        {
          "internalType": "uint256",
          "name": "",
          "type": "uint256"
        }
      ],
      "stateMutability": "view",
      "type": "function"
    },
    {
      "inputs": [
        {
          "internalType": "address",
          "name": "holder",
          "type": "address"
        }
      ],
      "name": "currentValueMultiplier",
      "outputs": [
        {
          "internalType": "uint256",
          "name": "multiplierBps",
          "type": "uint256"
        }
      ],
      "stateMutability": "view",
      "type": "function"
    },
    {
      "inputs": [],
      "name": "decimals",
      "outputs": [
        {
          "internalType": "uint8",
          "name": "",
          "type": "uint8"
        }
      ],
      "stateMutability": "pure",
      "type": "function"
    },
    {
      "inputs": [
        {
          "internalType": "address",
          "name": "to",
          "type": "address"
        },
        {
          "internalType": "uint256",
          "name": "amount",
          "type": "uint256"
        }
      ],
      "name": "educationalMint",
      "outputs": [],
      "stateMutability": "nonpayable",
      "type": "function"
    },
    {
      "inputs": [
        {
          "internalType": "address",
          "name": "",
          "type": "address"
        }
      ],
      "name": "holdings",
      "outputs": [
        {
          "internalType": "uint256",
          "name": "amount",
          "type": "uint256"
        },
        {
          "internalType": "uint64",
          "name": "firstPurchaseAt",
          "type": "uint64"
        }
      ],
      "stateMutability": "view",
      "type": "function"
    },
    {
      "inputs": [
        {
          "internalType": "address",
          "name": "holder",
          "type": "address"
        }
      ],
      "name": "loyaltyBonusAmount",
      "outputs": [
        {
          "internalType": "uint256",
          "name": "",
          "type": "uint256"
        }
      ],
      "stateMutability": "view",
      "type": "function"
    },
    {
      "inputs": [],
      "name": "name",
      "outputs": [
        {
          "internalType": "string",
          "name": "",
          "type": "string"
        }
      ],
      "stateMutability": "view",
      "type": "function"
    },
    {
      "inputs": [],
      "name": "owner",
      "outputs": [
        {
          "internalType": "address",
          "name": "",
          "type": "address"
        }
      ],
      "stateMutability": "view",
      "type": "function"
    },
    {
      "inputs": [],
      "name": "pause",
      "outputs": [],
      "stateMutability": "nonpayable",
      "type": "function"
    },
    {
      "inputs": [],
      "name": "paused",
      "outputs": [
        {
          "internalType": "bool",
          "name": "",
          "type": "bool"
        }
      ],
      "stateMutability": "view",
      "type": "function"
    },
    {
      "inputs": [],
      "name": "renounceOwnership",
      "outputs": [],
      "stateMutability": "nonpayable",
      "type": "function"
    },
    {
      "inputs": [],
      "name": "symbol",
      "outputs": [
        {
          "internalType": "string",
          "name": "",
          "type": "string"
        }
      ],
      "stateMutability": "view",
      "type": "function"
    },
    {
      "inputs": [],
      "name": "totalSupply",
      "outputs": [
        {
          "internalType": "uint256",
          "name": "",
          "type": "uint256"
        }
      ],
      "stateMutability": "view",
      "type": "function"
    },
    {
      "inputs": [
        {
          "internalType": "address",
          "name": "to",
          "type": "address"
        },
        {
          "internalType": "uint256",
          "name": "value",
          "type": "uint256"
        }
      ],
      "name": "transfer",
      "outputs": [
        {
          "internalType": "bool",
          "name": "",
          "type": "bool"
        }
      ],
      "stateMutability": "nonpayable",
      "type": "function"
    },
    {
      "inputs": [
        {
          "internalType": "address",
          "name": "from",
          "type": "address"
        },
        {
          "internalType": "address",
          "name": "to",
          "type": "address"
        },
        {
          "internalType": "uint256",
          "name": "value",
          "type": "uint256"
        }
      ],
      "name": "transferFrom",
      "outputs": [
        {
          "internalType": "bool",
          "name": "",
          "type": "bool"
        }
      ],
      "stateMutability": "nonpayable",
      "type": "function"
    },
    {
      "inputs": [
        {
          "internalType": "address",
          "name": "newOwner",
          "type": "address"
        }
      ],
      "name": "transferOwnership",
      "outputs": [],
      "stateMutability": "nonpayable",
      "type": "function"
    },
    {
      "inputs": [],
      "name": "unpause",
      "outputs": [],
      "stateMutability": "nonpayable",
      "type": "function"
    }
  ],
  "bytecode": "0x60a06040523480156200001157600080fd5b5033620f4240604051806040016040528060128152602001714d4d44562057696e6520546f6b656e20563360701b815250604051806040016040528060048152602001634d57543360e01b8152508160039081620000709190620001f8565b5060046200007f8282620001f8565b50505080600003620000ac5760405163392e1e2760e01b8152600060048201526024015b60405180910390fd5b6080526005805460ff191690556001600160a01b038116620000e557604051631e4fbdf760e01b815260006004820152602401620000a3565b620000f081620000f7565b50620002c4565b600580546001600160a01b03838116610100818102610100600160a81b031985161790945560405193909204169182907f8be0079c531659141344cd1fd0a4f28419497f9722a3daafe3b4186f6b6457e090600090a35050565b634e487b7160e01b600052604160045260246000fd5b600181811c908216806200017c57607f821691505b6020821081036200019d57634e487b7160e01b600052602260045260246000fd5b50919050565b601f821115620001f3576000816000526020600020601f850160051c81016020861015620001ce5750805b601f850160051c820191505b81811015620001ef57828155600101620001da565b5050505b505050565b81516001600160401b0381111562000214576200021462000151565b6200022c8162000225845462000167565b84620001a3565b602080601f8311600181146200026457600084156200024b5750858301515b600019600386901b1c1916600185901b178555620001ef565b600085815260208120601f198616915b82811015620002955788860151825594840194600190910190840162000274565b5085821015620002b45787850151600019600388901b60f8161c191681555b5050505050600190811b01905550565b608051610f1c620002e7600039600081816101f90152610b7c0152610f1c6000f3fe608060405234801561001057600080fd5b50600436106101585760003560e01c80635c975abb116100c357806395d89b411161007c57806395d89b41146102cd578063a9059cbb146102d5578063dd3ced63146102e8578063dd62ed3e14610337578063e525907f14610370578063f2fde38b1461038357600080fd5b80635c975abb1461024d57806370a0823114610258578063715018a61461028157806379cc6790146102895780638456cb591461029c5780638da5cb5b146102a457600080fd5b8063313ce56711610115578063313ce567146101de57806332cb6b0c146101ed578063355274ea146101f75780633f4ba83a1461021d57806342966c68146102275780635c342ae81461023a57600080fd5b8063011106871461015d57806306fdde0314610178578063095ea7b31461018d57806318160ddd146101b057806323b872dd146101b85780632c4336f8146101cb575b600080fd5b610165600a81565b6040519081526020015b60405180910390f35b610180610396565b60405161016f9190610cf8565b6101a061019b366004610d63565b610428565b604051901515815260200161016f565b600254610165565b6101a06101c6366004610d8d565b610442565b6101656101d9366004610dc9565b610466565b6040516000815260200161016f565b610165620f424081565b7f0000000000000000000000000000000000000000000000000000000000000000610165565b610225610511565b005b610225610235366004610deb565b610523565b610165610248366004610dc9565b610530565b60055460ff166101a0565b610165610266366004610dc9565b6001600160a01b031660009081526020819052604090205490565b610225610619565b610225610297366004610d63565b61062b565b610225610644565b60055461010090046001600160a01b03166040516001600160a01b03909116815260200161016f565b610180610654565b6101a06102e3366004610d63565b610663565b6103196102f6366004610dc9565b6006602052600090815260409020805460019091015467ffffffffffffffff1682565b6040805192835267ffffffffffffffff90911660208301520161016f565b610165610345366004610e04565b6001600160a01b03918216600090815260016020908152604080832093909416825291909152205490565b61022561037e366004610d63565b610671565b610225610391366004610dc9565b61077c565b6060600380546103a590610e37565b80601f01602080910402602001604051908101604052809291908181526020018280546103d190610e37565b801561041e5780601f106103f35761010080835404028352916020019161041e565b820191906000526020600020905b81548152906001019060200180831161040157829003601f168201915b5050505050905090565b6000336104368185856107b7565b60019150505b92915050565b6000336104508582856107c4565b61045b858585610842565b506001949350505050565b6001600160a01b03811660009081526006602090815260408083208151808301909252805482526001015467ffffffffffffffff169181018290529015806104ad57508051155b156104bb5750600092915050565b6000816020015167ffffffffffffffff16426104d79190610e87565b9050630784ce008110156104ef575060009392505050565b81516064906104ff90600a610e9a565b6105099190610eb1565b949350505050565b6105196108a1565b6105216108d4565b565b61052d3382610926565b50565b6001600160a01b03811660009081526006602090815260408083208151808301909252805482526001015467ffffffffffffffff1691810182905290820361057c575061271092915050565b6000816020015167ffffffffffffffff16426105989190610e87565b90506301e13380808210156105b35750612710949350505050565b6105be816002610e9a565b8210156105d15750612904949350505050565b6105dc816003610e9a565b8210156105ef5750612af8949350505050565b6105fa816004610e9a565b82101561060d5750612cec949350505050565b50612ee0949350505050565b6106216108a1565b610521600061095c565b6106368233836107c4565b6106408282610926565b5050565b61064c6108a1565b6105216109b6565b6060600480546103a590610e37565b600033610436818585610842565b6106796108a1565b6001600160a01b0382166106c75760405162461bcd60e51b815260206004820152601060248201526f44657374696e6f20696e76616c69646f60801b60448201526064015b60405180910390fd5b600081116107065760405162461bcd60e51b815260206004820152600c60248201526b043616e7469646164203e20360a41b60448201526064016106be565b61071082826109f3565b6001600160a01b038216600090815260066020526040812080549091839183919061073c908490610ed3565b9091555050600181015467ffffffffffffffff166000036107775760018101805467ffffffffffffffff19164267ffffffffffffffff161790555b505050565b6107846108a1565b6001600160a01b0381166107ae57604051631e4fbdf760e01b8152600060048201526024016106be565b61052d8161095c565b6107778383836001610a29565b6001600160a01b03838116600090815260016020908152604080832093861683529290522054600019811461083c578181101561082d57604051637dc7a0d960e11b81526001600160a01b038416600482015260248101829052604481018390526064016106be565b61083c84848484036000610a29565b50505050565b6001600160a01b03831661086c57604051634b637e8f60e11b8152600060048201526024016106be565b6001600160a01b0382166108965760405163ec442f0560e01b8152600060048201526024016106be565b610777838383610afe565b6005546001600160a01b036101009091041633146105215760405163118cdaa760e01b81523360048201526024016106be565b6108dc610b09565b6005805460ff191690557f5db9ee0a495bf2e6ff9c91a7834c1ba4fdd244a5e8aa4e537bd38aeae4b073aa335b6040516001600160a01b03909116815260200160405180910390a1565b6001600160a01b03821661095057604051634b637e8f60e11b8152600060048201526024016106be565b61064082600083610afe565b600580546001600160a01b03838116610100818102610100600160a81b031985161790945560405193909204169182907f8be0079c531659141344cd1fd0a4f28419497f9722a3daafe3b4186f6b6457e090600090a35050565b6109be610b2c565b6005805460ff191660011790557f62e78cea01bee320cd4e420270b5ea74000d11b0c9f74754ebdbfc544b05a2586109093390565b6001600160a01b038216610a1d5760405163ec442f0560e01b8152600060048201526024016106be565b61064060008383610afe565b6001600160a01b038416610a535760405163e602df0560e01b8152600060048201526024016106be565b6001600160a01b038316610a7d57604051634a1406b160e11b8152600060048201526024016106be565b6001600160a01b038085166000908152600160209081526040808320938716835292905220829055801561083c57826001600160a01b0316846001600160a01b03167f8c5be1e5ebec7d5bd14f71427d1e84f3dd0314c0f7b2291e5b200ac8c7c3b92584604051610af091815260200190565b60405180910390a350505050565b610777838383610b50565b60055460ff1661052157604051638dfc202b60e01b815260040160405180910390fd5b60055460ff16156105215760405163d93c066560e01b815260040160405180910390fd5b610b58610b2c565b610777838383610b69838383610bce565b6001600160a01b038316610777576002547f00000000000000000000000000000000000000000000000000000000000000009081811115610bc75760405163279e7e1560e21b815260048101829052602481018390526044016106be565b5050505050565b6001600160a01b038316610bf9578060026000828254610bee9190610ed3565b90915550610c6b9050565b6001600160a01b03831660009081526020819052604090205481811015610c4c5760405163391434e360e21b81526001600160a01b038516600482015260248101829052604481018390526064016106be565b6001600160a01b03841660009081526020819052604090209082900390555b6001600160a01b038216610c8757600280548290039055610ca6565b6001600160a01b03821660009081526020819052604090208054820190555b816001600160a01b0316836001600160a01b03167fddf252ad1be2c89b69c2b068fc378daa952ba7f163c4a11628f55a4df523b3ef83604051610ceb91815260200190565b60405180910390a3505050565b60006020808352835180602085015260005b81811015610d2657858101830151858201604001528201610d0a565b506000604082860101526040601f19601f8301168501019250505092915050565b80356001600160a01b0381168114610d5e57600080fd5b919050565b60008060408385031215610d7657600080fd5b610d7f83610d47565b946020939093013593505050565b600080600060608486031215610da257600080fd5b610dab84610d47565b9250610db960208501610d47565b9150604084013590509250925092565b600060208284031215610ddb57600080fd5b610de482610d47565b9392505050565b600060208284031215610dfd57600080fd5b5035919050565b60008060408385031215610e1757600080fd5b610e2083610d47565b9150610e2e60208401610d47565b90509250929050565b600181811c90821680610e4b57607f821691505b602082108103610e6b57634e487b7160e01b600052602260045260246000fd5b50919050565b634e487b7160e01b600052601160045260246000fd5b8181038181111561043c5761043c610e71565b808202811582820484141761043c5761043c610e71565b600082610ece57634e487b7160e01b600052601260045260246000fd5b500490565b8082018082111561043c5761043c610e7156fea26469706673582212206d510ce222e78d1408a64fe0c3949db4173c8b6e661f1054e1f177149e81abbe64736f6c63430008180033",
  "linkReferences": {},
  "deployedLinkReferences": {}
}