{
  "_format": "hh-sol-artifact-1",
  "contractName": "MMDVWineTokenV5",
  "sourceName": "contracts/MMDVWineTokenV5.sol",
  "abi": [
    {
      "inputs": [],
      "stateMutability": "nonpayable",
      "type": "constructor"
    },
    {
      "inputs": [
        {
          "internalType": "uint256",
          "name": "increasedSupply",
          "type": "uint256"
        },
        {
          "internalType": "uint256",
          "name": "cap",
          "type": "uint256"
        }
      ],
      "name": "ERC20ExceededCap",
      "type": "error"
    },
    {
      "inputs": [
        {
          "internalType": "address",
          "name": "spender",
          "type": "address"
        },
        {
          "internalType": "uint256",
          "name": "allowance",
          "type": "uint256"
        },
        {
          "internalType": "uint256",
          "name": "needed",
          "type": "uint256"
        }
      ],
      "name": "ERC20InsufficientAllowance",
      "type": "error"
    },
    {
      "inputs": [
        {
          "internalType": "address",
          "name": "sender",
          "type": "address"
        },
        {
          "internalType": "uint256",
          "name": "balance",
          "type": "uint256"
        },
        {
          "internalType": "uint256",
          "name": "needed",
          "type": "uint256"
        }
      ],
      "name": "ERC20InsufficientBalance",
      "type": "error"
    },
    {
      "inputs": [
        {
          "internalType": "address",
          "name": "approver",
          "type": "address"
        }
      ],
      "name": "ERC20InvalidApprover",
      "type": "error"
    },
    {
      "inputs": [
        {
          "internalType": "uint256",
          "name": "cap",
          "type": "uint256"
        }
      ],
      "name": "ERC20InvalidCap",
      "type": "error"
    },
    {
      "inputs": [
        {
          "internalType": "address",
          "name": "receiver",
          "type": "address"
        }
      ],
      "name": "ERC20InvalidReceiver",
      "type": "error"
    },
    {
      "inputs": [
        {
          "internalType": "address",
          "name": "sender",
          "type": "address"
        }
      ],
      "name": "ERC20InvalidSender",
      "type": "error"
    },
    {
      "inputs": [
        {
          "internalType": "address",
          "name": "spender",
          "type": "address"
        }
      ],
      "name": "ERC20InvalidSpender",
      "type": "error"
    },
    {
      "inputs": [],
      "name": "EnforcedPause",
      "type": "error"
    },
    {
      "inputs": [],
      "name": "ExpectedPause",
      "type": "error"
    },
    {
      "inputs": [
        {
          "internalType": "address",
          "name": "owner",
          "type": "address"
        }
      ],
      "name": "OwnableInvalidOwner",
      "type": "error"
    },
    {
      "inputs": [
        {
          "internalType": "address",
          "name": "account",
          "type": "address"
        }
      ],
      "name": "OwnableUnauthorizedAccount",
      "type": "error"
    },
    {
      "anonymous": false,
      "inputs": [
        {
          "indexed": true,
          "internalType": "address",
          "name": "owner",
          "type": "address"
        },
        {
          "indexed": true,
          "internalType": "address",
          "name": "spender",
          "type": "address"
        },
        {
          "indexed": false,
          "internalType": "uint256",
          "name": "value",
          "type": "uint256"
        }
      ],
      "name": "Approval",
      "type": "event"
    },
    {
      "anonymous": false,
      "inputs": [
        {
          "indexed": true,
          "internalType": "address",
          "name": "seller",
          "type": "address"
        },
        {
          "indexed": false,
          "internalType": "uint256",
          "name": "amount",
          "type": "uint256"
        },
        {
          "indexed": false,
          "internalType": "uint256",
          "name": "priceUnitsPerToken",
          "type": "uint256"
        }
      ],
      "name": "OwnerBuyback",
      "type": "event"
    },
    {
      "anonymous": false,
      "inputs": [
        {
          "indexed": true,
          "internalType": "address",
          "name": "previousOwner",
          "type": "address"
        },
        {
          "indexed": true,
          "internalType": "address",
          "name": "newOwner",
          "type": "address"
        }
      ],
      "name": "OwnershipTransferred",
      "type": "event"
    },
    {
      "anonymous": false,
      "inputs": [
        {
          "indexed": false,
          "internalType": "address",
          "name": "account",
          "type": "address"
        }
      ],
      "name": "Paused",
      "type": "event"
    },
    {
      "anonymous": false,
      "inputs": [
        {
          "indexed": true,
          "internalType": "address",
          "name": "from",
          "type": "address"
        },
        {
          "indexed": true,
          "internalType": "address",
          "name": "to",
          "type": "address"
        },
        {
          "indexed": false,
          "internalType": "uint256",
          "name": "value",
          "type": "uint256"
        }
      ],
      "name": "Transfer",
      "type": "event"
    },
    {
      "anonymous": false,
      "inputs": [
        {
          "indexed": false,
          "internalType": "address",
          "name": "account",
          "type": "address"
        }
      ],
      "name": "Unpaused",
      "type": "event"
    },
    {
      "inputs": [],
      "name": "BASE_PRICE_UNITS",
      "outputs": [
        {
          "internalType": "uint256",
          "name": "",
          "type": "uint256"
        }
      ],
      "stateMutability": "view",
      "type": "function"
    },
    {
      "inputs": [],
      "name": "BUYBACK_PRICE_UNITS",
      "outputs": [
        {
          "internalType": "uint256",
          "name": "",
          "type": "uint256"
        }
      ],
      "stateMutability": "view",
      "type": "function"
    },
    {
      "inputs": [],
      "name": "CANCELLATION_PERIOD",
      "outputs": [
        {
          "internalType": "uint256",
          "name": "",
          "type": "uint256"
        }
      ],
      "stateMutability": "view",
      "type": "function"
    },
    {
      "inputs": [],
      "name": "MAX_SUPPLY",
      "outputs": [
        {
          "internalType": "uint256",
          "name": "",
          "type": "uint256"
        }
      ],
      "stateMutability": "view",
      "type": "function"
    },
    {
      "inputs": [],
      "name": "MIN_LOCK_PERIOD",
      "outputs": [
        {
          "internalType": "uint256",
          "name": "",
          "type": "uint256"
        }
      ],
      "stateMutability": "view",
      "type": "function"
    },
    {
      "inputs": [
        {
          "internalType": "address",
          "name": "owner",
          "type": "address"
        },
        {
          "internalType": "address",
          "name": "spender",
          "type": "address"
        }
      ],
      "name": "allowance",
      "outputs": [
        {
          "internalType": "uint256",
          "name": "",
          "type": "uint256"
        }
      ],
      "stateMutability": "view",
      "type": "function"
    },
    {
      "inputs": [
        {
          "internalType": "address",
          "name": "spender",
          "type": "address"
        },
        {
          "internalType": "uint256",
          "name": "value",
          "type": "uint256"
        }
      ],
      "name": "approve",
      "outputs": [
        {
          "internalType": "bool",
          "name": "",
          "type": "bool"
        }
      ],
      "stateMutability": "nonpayable",
      "type": "function"
    },
    {
      "inputs": [
        {
          "internalType": "address",
          "name": "account",
          "type": "address"
        }
      ],
      "name": "balanceOf",
      "outputs": [
        {
          "internalType": "uint256",
          "name": "",
          "type": "uint256"
        }
      ],
      "stateMutability": "view",
      "type": "function"
    },
    {
      "inputs": [
        {
          "internalType": "uint256",
          "name": "value",
          "type": "uint256"
        }
      ],
      "name": "burn",
      "outputs": [],
      "stateMutability": "nonpayable",
      "type": "function"
    },
    {
      "inputs": [
        {
          "internalType": "address",
          "name": "account",
          "type": "address"
        },
        {
          "internalType": "uint256",
          "name": "value",
          "type": "uint256"
        }
      ],
      "name": "burnFrom",
      "outputs": [],
      "stateMutability": "nonpayable",
      "type": "function"
    },
    {
      "inputs": [
        {
          "internalType": "uint256",
          "name": "amount",
          "type": "uint256"
        }
      ],
      "name": "cancelWithin24h",
      "outputs": [],
      "stateMutability": "nonpayable",
      "type": "function"
    },
    {
      "inputs": [],
      "name": "cap",
      "outputs": [
        {
          "internalType": "uint256",
          "name": "",
          "type": "uint256"
        }
      ],
      "stateMutability": "view",
      "type": "function"
    },
    {
      "inputs": [
        {
          "internalType": "address",
          "name": "holder",
          "type": "address"
        }
      ],
      "name": "currentValueMultiplier",
      "outputs": [
        {
          "internalType": "uint256",
          "name": "multiplierBps",
          "type": "uint256"
        }
      ],
      "stateMutability": "view",
      "type": "function"
    },
    {
      "inputs": [],
      "name": "decimals",
      "outputs": [
        {
          "internalType": "uint8",
          "name": "",
          "type": "uint8"
        }
      ],
      "stateMutability": "pure",
      "type": "function"
    },
    {
      "inputs": [
        {
          "internalType": "address",
          "name": "to",
          "type": "address"
        },
        {
          "internalType": "uint256",
          "name": "amount",
          "type": "uint256"
        }
      ],
      "name": "educationalMint",
      "outputs": [],
      "stateMutability": "nonpayable",
      "type": "function"
    },
    {
      "inputs": [
        {
          "internalType": "address",
          "name": "",
          "type": "address"
        }
      ],
      "name": "hasPriorityForNextLot",
      "outputs": [
        {
          "internalType": "bool",
          "name": "",
          "type": "bool"
        }
      ],
      "stateMutability": "view",
      "type": "function"
    },
    {
      "inputs": [
        {
          "internalType": "address",
          "name": "",
          "type": "address"
        }
      ],
      "name": "holdings",
      "outputs": [
        {
          "internalType": "uint256",
          "name": "amount",
          "type": "uint256"
        },
        {
          "internalType": "uint64",
          "name": "firstPurchaseAt",
          "type": "uint64"
        }
      ],
      "stateMutability": "view",
      "type": "function"
    },
    {
      "inputs": [
        {
          "internalType": "address",
          "name": "holder",
          "type": "address"
        }
      ],
      "name": "loyaltyBonusAmount",
      "outputs": [
        {
          "internalType": "uint256",
          "name": "",
          "type": "uint256"
        }
      ],
      "stateMutability": "view",
      "type": "function"
    },
    {
      "inputs": [
        {
          "internalType": "address",
          "name": "holder",
          "type": "address"
        }
      ],
      "name": "minResalePriceUnitsPerToken",
      "outputs": [
        {
          "internalType": "uint256",
          "name": "",
          "type": "uint256"
        }
      ],
      "stateMutability": "view",
      "type": "function"
    },
    {
      "inputs": [],
      "name": "name",
      "outputs": [
        {
          "internalType": "string",
          "name": "",
          "type": "string"
        }
      ],
      "stateMutability": "view",
      "type": "function"
    },
    {
      "inputs": [],
      "name": "owner",
      "outputs": [
        {
          "internalType": "address",
          "name": "",
          "type": "address"
        }
      ],
      "stateMutability": "view",
      "type": "function"
    },
    {
      "inputs": [
        {
          "internalType": "address",
          "name": "seller",
          "type": "address"
        },
        {
          "internalType": "uint256",
          "name": "amount",
          "type": "uint256"
        }
      ],
      "name": "ownerBuyback",
      "outputs": [],
      "stateMutability": "nonpayable",
      "type": "function"
    },
    {
      "inputs": [],
      "name": "pause",
      "outputs": [],
      "stateMutability": "nonpayable",
      "type": "function"
    },
    {
      "inputs": [],
      "name": "paused",
      "outputs": [
        {
          "internalType": "bool",
          "name": "",
          "type": "bool"
        }
      ],
      "stateMutability": "view",
      "type": "function"
    },
    {
      "inputs": [],
      "name": "renounceOwnership",
      "outputs": [],
      "stateMutability": "nonpayable",
      "type": "function"
    },
    {
      "inputs": [],
      "name": "symbol",
      "outputs": [
        {
          "internalType": "string",
          "name": "",
          "type": "string"
        }
      ],
      "stateMutability": "view",
      "type": "function"
    },
    {
      "inputs": [],
      "name": "totalSupply",
      "outputs": [
        {
          "internalType": "uint256",
          "name": "",
          "type": "uint256"
        }
      ],
      "stateMutability": "view",
      "type": "function"
    },
    {
      "inputs": [
        {
          "internalType": "address",
          "name": "to",
          "type": "address"
        },
        {
          "internalType": "uint256",
          "name": "value",
          "type": "uint256"
        }
      ],
      "name": "transfer",
      "outputs": [
        {
          "internalType": "bool",
          "name": "",
          "type": "bool"
        }
      ],
      "stateMutability": "nonpayable",
      "type": "function"
    },
    {
      "inputs": [
        {
          "internalType": "address",
          "name": "from",
          "type": "address"
        },
        {
          "internalType": "address",
          "name": "to",
          "type": "address"
        },
        {
          "internalType": "uint256",
          "name": "value",
          "type": "uint256"
        }
      ],
      "name": "transferFrom",
      "outputs": [
        {
          "internalType": "bool",
          "name": "",
          "type": "bool"
        }
      ],
      "stateMutability": "nonpayable",
      "type": "function"
    },
    {
      "inputs": [
        {
          "internalType": "address",
          "name": "newOwner",
          "type": "address"
        }
      ],
      "name": "transferOwnership",
      "outputs": [],
      "stateMutability": "nonpayable",
      "type": "function"
    },
    {
      "inputs": [],
      "name": "unpause",
      "outputs": [],
      "stateMutability": "nonpayable",
      "type": "function"
    },
    {
      "inputs": [
        {
          "internalType": "address",
          "name": "holder",
          "type": "address"
        },
        {
          "internalType": "uint256",
          "name": "proposedPriceUnitsPerToken",
          "type": "uint256"
        }
      ],
      "name": "validateResalePrice",
      "outputs": [
        {
          "internalType": "bool",
          "name": "ok",
          "type": "bool"
        },
        {
          "internalType": "uint256",
          "name": "minPriceUnitsPerToken",
          "type": "uint256"
        }
      ],
      "stateMutability": "view",
      "type": "function"
    }
  ],
  "bytecode": "0x60a06040523480156200001157600080fd5b5033620f4240604051806040016040528060128152602001714d4d44562057696e6520546f6b656e20563560701b815250604051806040016040528060048152602001634d57543560e01b8152508160039081620000709190620001f8565b5060046200007f8282620001f8565b50505080600003620000ac5760405163392e1e2760e01b8152600060048201526024015b60405180910390fd5b6080526005805460ff191690556001600160a01b038116620000e557604051631e4fbdf760e01b815260006004820152602401620000a3565b620000f081620000f7565b50620002c4565b600580546001600160a01b03838116610100818102610100600160a81b031985161790945560405193909204169182907f8be0079c531659141344cd1fd0a4f28419497f9722a3daafe3b4186f6b6457e090600090a35050565b634e487b7160e01b600052604160045260246000fd5b600181811c908216806200017c57607f821691505b6020821081036200019d57634e487b7160e01b600052602260045260246000fd5b50919050565b601f821115620001f3576000816000526020600020601f850160051c81016020861015620001ce5750805b601f850160051c820191505b81811015620001ef57828155600101620001da565b5050505b505050565b81516001600160401b0381111562000214576200021462000151565b6200022c8162000225845462000167565b84620001a3565b602080601f8311600181146200026457600084156200024b5750858301515b600019600386901b1c1916600185901b178555620001ef565b600085815260208120601f198616915b82811015620002955788860151825594840194600190910190840162000274565b5085821015620002b45787850151600019600388901b60f8161c191681555b5050505050600190811b01905550565b608051611621620002e7600039600081816102c3015261125201526116216000f3fe608060405234801561001057600080fd5b50600436106101f05760003560e01c80635c975abb1161010f578063a9059cbb116100a2578063e525907f11610071578063e525907f14610477578063f03c19fe1461048a578063f2fde38b146104b4578063f7e32c6e146104c757600080fd5b8063a9059cbb146103cb578063b739ade4146103de578063dd3ced63146103f1578063dd62ed3e1461043e57600080fd5b80638456cb59116100de5780638456cb591461036f57806384dad2f6146103775780638da5cb5b1461039a57806395d89b41146103c357600080fd5b80635c975abb1461032057806370a082311461032b578063715018a61461035457806379cc67901461035c57600080fd5b8063306b1b3e11610187578063385dc3df11610156578063385dc3df146102e75780633f4ba83a146102f257806342966c68146102fa5780635c342ae81461030d57600080fd5b8063306b1b3e1461029e578063313ce567146102a857806332cb6b0c146102b7578063355274ea146102c157600080fd5b806318160ddd116101c357806318160ddd1461025d57806323b872dd146102655780632c4336f8146102785780632cf7db6d1461028b57600080fd5b806301110687146101f557806306fdde0314610210578063095ea7b3146102255780631287c0ba14610248575b600080fd5b6101fd600a81565b6040519081526020015b60405180910390f35b6102186104cf565b60405161020791906113ce565b610238610233366004611439565b610561565b6040519015158152602001610207565b61025b610256366004611439565b61057b565b005b6002546101fd565b610238610273366004611463565b61070e565b6101fd61028636600461149f565b610732565b6101fd61029936600461149f565b6107db565b6101fd6201518081565b60405160008152602001610207565b6101fd620f424081565b7f00000000000000000000000000000000000000000000000000000000000000006101fd565b6101fd6301e1338081565b61025b6108a5565b61025b6103083660046114c1565b6108b7565b6101fd61031b36600461149f565b6108c4565b60055460ff16610238565b6101fd61033936600461149f565b6001600160a01b031660009081526020819052604090205490565b61025b6109ab565b61025b61036a366004611439565b6109bd565b61025b6109d5565b61023861038536600461149f565b60076020526000908152604090205460ff1681565b60055461010090046001600160a01b03166040516001600160a01b039091168152602001610207565b6102186109e5565b6102386103d9366004611439565b6109f4565b61025b6103ec3660046114c1565b610a02565b6104216103ff36600461149f565b600660205260009081526040902080546001909101546001600160401b031682565b604080519283526001600160401b03909116602083015201610207565b6101fd61044c3660046114da565b6001600160a01b03918216600090815260016020908152604080832093909416825291909152205490565b61025b610485366004611439565b610b98565b61049d610498366004611439565b610cc2565b604080519215158352602083019190915201610207565b61025b6104c236600461149f565b610cdd565b6101fd600c81565b6060600380546104de9061150d565b80601f016020809104026020016040519081016040528092919081815260200182805461050a9061150d565b80156105575780601f1061052c57610100808354040283529160200191610557565b820191906000526020600020905b81548152906001019060200180831161053a57829003601f168201915b5050505050905090565b60003361056f818585610d18565b60019150505b92915050565b610583610d25565b6001600160a01b0382166105d05760405162461bcd60e51b815260206004820152600f60248201526e53656c6c657220696e76616c69646f60881b60448201526064015b60405180910390fd5b600081116105f05760405162461bcd60e51b81526004016105c790611547565b80610610836001600160a01b031660009081526020819052604090205490565b10156106535760405162461bcd60e51b815260206004820152601260248201527153616c646f20696e737566696369656e746560701b60448201526064016105c7565b61065f82335b83610d58565b6106818261067b6005546001600160a01b036101009091041690565b83610dd6565b6001600160a01b0382166000908152600660205260409020805482116106c057818160000160008282546106b5919061158c565b909155506106c59050565b600081555b60408051838152600c60208201526001600160a01b038516917f91e53c2c372a509cde50972e1ee1fe34d961d76cd6dc1418444b1263f3077f39910160405180910390a2505050565b60003361071c858285610d58565b610727858585610dd6565b506001949350505050565b6001600160a01b0381166000908152600660209081526040808320815180830190925280548252600101546001600160401b031691810182905290158061077857508051155b156107865750600092915050565b600081602001516001600160401b0316426107a1919061158c565b9050630784ce008110156107b9575060009392505050565b81516064906107c990600a61159f565b6107d391906115b6565b949350505050565b6001600160a01b0381166000908152600660209081526040808320815180830190925280548252600101546001600160401b03169181018290529082036108255750600a92915050565b600081602001516001600160401b031642610840919061158c565b90506301e133808110156108585750600a9392505050565b60006108686301e13380836115b6565b9050600061087782601961159f565b6108829060646115d8565b9050606461089182600a61159f565b61089b91906115b6565b9695505050505050565b6108ad610d25565b6108b5610e35565b565b6108c13382610e87565b50565b6001600160a01b0381166000908152600660209081526040808320815180830190925280548252600101546001600160401b031691810182905290820361090f575061271092915050565b600081602001516001600160401b03164261092a919061158c565b90506301e13380808210156109455750612710949350505050565b61095081600261159f565b8210156109635750612904949350505050565b61096e81600361159f565b8210156109815750612af8949350505050565b61098c81600461159f565b82101561099f5750612cec949350505050565b50612ee0949350505050565b6109b3610d25565b6108b56000610ebd565b6109c78233610659565b6109d18282610e87565b5050565b6109dd610d25565b6108b5610f17565b6060600480546104de9061150d565b60003361056f818585610dd6565b336000908152600660205260408120600181015490916001600160401b039091169003610a695760405162461bcd60e51b815260206004820152601560248201527453696e20636f6d707261207265676973747261646160581b60448201526064016105c7565b6001810154610a859062015180906001600160401b03166115d8565b421115610ad45760405162461bcd60e51b815260206004820152601d60248201527f506572696f646f2064652063616e63656c6163696f6e2070617361646f00000060448201526064016105c7565b60008211610af45760405162461bcd60e51b81526004016105c790611547565b33600090815260208190526040902054821115610b485760405162461bcd60e51b815260206004820152601260248201527153616c646f20696e737566696369656e746560701b60448201526064016105c7565b610b6a33610b646005546001600160a01b036101009091041690565b84610dd6565b80548211610b915781816000016000828254610b86919061158c565b909155506109d19050565b6000905550565b610ba0610d25565b6001600160a01b038216610bea5760405162461bcd60e51b815260206004820152601160248201527044657374696e6f206e6f2076616c69646f60781b60448201526064016105c7565b60008111610c0a5760405162461bcd60e51b81526004016105c790611547565b610c148282610f54565b6001600160a01b0382166000908152600660205260408120805490918391839190610c409084906115d8565b909155505060018101546001600160401b0316600003610c795760018101805467ffffffffffffffff1916426001600160401b03161790555b6001600160a01b03831660009081526007602052604090205460ff16610cbd576001600160a01b0383166000908152600760205260409020805460ff191660011790555b505050565b6000806000610cd0856107db565b9384111595939450505050565b610ce5610d25565b6001600160a01b038116610d0f57604051631e4fbdf760e01b8152600060048201526024016105c7565b6108c181610ebd565b610cbd8383836001610f8a565b6005546001600160a01b036101009091041633146108b55760405163118cdaa760e01b81523360048201526024016105c7565b6001600160a01b038381166000908152600160209081526040808320938616835292905220546000198114610dd05781811015610dc157604051637dc7a0d960e11b81526001600160a01b038416600482015260248101829052604481018390526064016105c7565b610dd084848484036000610f8a565b50505050565b6001600160a01b038316610e0057604051634b637e8f60e11b8152600060048201526024016105c7565b6001600160a01b038216610e2a5760405163ec442f0560e01b8152600060048201526024016105c7565b610cbd83838361105f565b610e3d611074565b6005805460ff191690557f5db9ee0a495bf2e6ff9c91a7834c1ba4fdd244a5e8aa4e537bd38aeae4b073aa335b6040516001600160a01b03909116815260200160405180910390a1565b6001600160a01b038216610eb157604051634b637e8f60e11b8152600060048201526024016105c7565b6109d18260008361105f565b600580546001600160a01b03838116610100818102610100600160a81b031985161790945560405193909204169182907f8be0079c531659141344cd1fd0a4f28419497f9722a3daafe3b4186f6b6457e090600090a35050565b610f1f611097565b6005805460ff191660011790557f62e78cea01bee320cd4e420270b5ea74000d11b0c9f74754ebdbfc544b05a258610e6a3390565b6001600160a01b038216610f7e5760405163ec442f0560e01b8152600060048201526024016105c7565b6109d16000838361105f565b6001600160a01b038416610fb45760405163e602df0560e01b8152600060048201526024016105c7565b6001600160a01b038316610fde57604051634a1406b160e11b8152600060048201526024016105c7565b6001600160a01b0380851660009081526001602090815260408083209387168352929052208290558015610dd057826001600160a01b0316846001600160a01b03167f8c5be1e5ebec7d5bd14f71427d1e84f3dd0314c0f7b2291e5b200ac8c7c3b9258460405161105191815260200190565b60405180910390a350505050565b61106983836110bb565b610cbd838383611226565b60055460ff166108b557604051638dfc202b60e01b815260040160405180910390fd5b60055460ff16156108b55760405163d93c066560e01b815260040160405180910390fd5b6001600160a01b03821615806110d857506001600160a01b038116155b156110e1575050565b60055461010090046001600160a01b03166001600160a01b0316816001600160a01b03160361110e575050565b60055461010090046001600160a01b03166001600160a01b0316826001600160a01b03160361113b575050565b6001600160a01b0382166000908152600660209081526040808320815180830190925280548252600101546001600160401b031691810182905291036111ba5760405162461bcd60e51b815260206004820152601460248201527353696e206461746f7320646520686f6c64696e6760601b60448201526064016105c7565b6301e1338081602001516001600160401b03166111d791906115d8565b421015610cbd5760405162461bcd60e51b815260206004820152601f60248201527f546f6b656e7320626c6f71756561646f7320647572616e7465203120616e6f0060448201526064016105c7565b61122e611097565b610cbd83838361123f8383836112a4565b6001600160a01b038316610cbd576002547f0000000000000000000000000000000000000000000000000000000000000000908181111561129d5760405163279e7e1560e21b815260048101829052602481018390526044016105c7565b5050505050565b6001600160a01b0383166112cf5780600260008282546112c491906115d8565b909155506113419050565b6001600160a01b038316600090815260208190526040902054818110156113225760405163391434e360e21b81526001600160a01b038516600482015260248101829052604481018390526064016105c7565b6001600160a01b03841660009081526020819052604090209082900390555b6001600160a01b03821661135d5760028054829003905561137c565b6001600160a01b03821660009081526020819052604090208054820190555b816001600160a01b0316836001600160a01b03167fddf252ad1be2c89b69c2b068fc378daa952ba7f163c4a11628f55a4df523b3ef836040516113c191815260200190565b60405180910390a3505050565b60006020808352835180602085015260005b818110156113fc578581018301518582016040015282016113e0565b506000604082860101526040601f19601f8301168501019250505092915050565b80356001600160a01b038116811461143457600080fd5b919050565b6000806040838503121561144c57600080fd5b6114558361141d565b946020939093013593505050565b60008060006060848603121561147857600080fd5b6114818461141d565b925061148f6020850161141d565b9150604084013590509250925092565b6000602082840312156114b157600080fd5b6114ba8261141d565b9392505050565b6000602082840312156114d357600080fd5b5035919050565b600080604083850312156114ed57600080fd5b6114f68361141d565b91506115046020840161141d565b90509250929050565b600181811c9082168061152157607f821691505b60208210810361154157634e487b7160e01b600052602260045260246000fd5b50919050565b602080825260159082015274043616e7469646164206465626520736572203e203605c1b604082015260600190565b634e487b7160e01b600052601160045260246000fd5b8181038181111561057557610575611576565b808202811582820484141761057557610575611576565b6000826115d357634e487b7160e01b600052601260045260246000fd5b500490565b808201808211156105755761057561157656fea2646970667358221220efaa147eda4470ed9728d1192bc24a8902bbf02ff1bb8bc7ceba6e3bf399910d64736f6c63430008180033",
  "linkReferences": {},
  "deployedLinkReferences": {}
}