{
  "_format": "hh-sol-artifact-1",
  "contractName": "MMDVWineTokenV4",
  "sourceName": "contracts/MMDVWineTokenV4.sol",
  "abi": [
    {
      "inputs": [],
      "stateMutability": "nonpayable",
      "type": "constructor"
    },
    {
      "inputs": [
        {
          "internalType": "uint256",
          "name": "increasedSupply",
          "type": "uint256"
        },
        {
          "internalType": "uint256",
          "name": "cap",
          "type": "uint256"
        }
      ],
      "name": "ERC20ExceededCap",
      "type": "error"
    },
    {
      "inputs": [
        {
          "internalType": "address",
          "name": "spender",
          "type": "address"
        },
        {
          "internalType": "uint256",
          "name": "allowance",
          "type": "uint256"
        },
        {
          "internalType": "uint256",
          "name": "needed",
          "type": "uint256"
        }
      ],
      "name": "ERC20InsufficientAllowance",
      "type": "error"
    },
    {
      "inputs": [
        {
          "internalType": "address",
          "name": "sender",
          "type": "address"
        },
        {
          "internalType": "uint256",
          "name": "balance",
          "type": "uint256"
        },
        {
          "internalType": "uint256",
          "name": "needed",
          "type": "uint256"
        }
      ],
      "name": "ERC20InsufficientBalance",
      "type": "error"
    },
    {
      "inputs": [
        {
          "internalType": "address",
          "name": "approver",
          "type": "address"
        }
      ],
      "name": "ERC20InvalidApprover",
      "type": "error"
    },
    {
      "inputs": [
        {
          "internalType": "uint256",
          "name": "cap",
          "type": "uint256"
        }
      ],
      "name": "ERC20InvalidCap",
      "type": "error"
    },
    {
      "inputs": [
        {
          "internalType": "address",
          "name": "receiver",
          "type": "address"
        }
      ],
      "name": "ERC20InvalidReceiver",
      "type": "error"
    },
    {
      "inputs": [
        {
          "internalType": "address",
          "name": "sender",
          "type": "address"
        }
      ],
      "name": "ERC20InvalidSender",
      "type": "error"
    },
    {
      "inputs": [
        {
          "internalType": "address",
          "name": "spender",
          "type": "address"
        }
      ],
      "name": "ERC20InvalidSpender",
      "type": "error"
    },
    {
      "inputs": [],
      "name": "EnforcedPause",
      "type": "error"
    },
    {
      "inputs": [],
      "name": "ExpectedPause",
      "type": "error"
    },
    {
      "inputs": [
        {
          "internalType": "address",
          "name": "owner",
          "type": "address"
        }
      ],
      "name": "OwnableInvalidOwner",
      "type": "error"
    },
    {
      "inputs": [
        {
          "internalType": "address",
          "name": "account",
          "type": "address"
        }
      ],
      "name": "OwnableUnauthorizedAccount",
      "type": "error"
    },
    {
      "anonymous": false,
      "inputs": [
        {
          "indexed": true,
          "internalType": "address",
          "name": "owner",
          "type": "address"
        },
        {
          "indexed": true,
          "internalType": "address",
          "name": "spender",
          "type": "address"
        },
        {
          "indexed": false,
          "internalType": "uint256",
          "name": "value",
          "type": "uint256"
        }
      ],
      "name": "Approval",
      "type": "event"
    },
    {
      "anonymous": false,
      "inputs": [
        {
          "indexed": true,
          "internalType": "address",
          "name": "holder",
          "type": "address"
        },
        {
          "indexed": false,
          "internalType": "uint256",
          "name": "amount",
          "type": "uint256"
        },
        {
          "indexed": false,
          "internalType": "uint256",
          "name": "valueUnits",
          "type": "uint256"
        }
      ],
      "name": "BuybackExecuted",
      "type": "event"
    },
    {
      "anonymous": false,
      "inputs": [
        {
          "indexed": true,
          "internalType": "address",
          "name": "previousOwner",
          "type": "address"
        },
        {
          "indexed": true,
          "internalType": "address",
          "name": "newOwner",
          "type": "address"
        }
      ],
      "name": "OwnershipTransferred",
      "type": "event"
    },
    {
      "anonymous": false,
      "inputs": [
        {
          "indexed": false,
          "internalType": "address",
          "name": "account",
          "type": "address"
        }
      ],
      "name": "Paused",
      "type": "event"
    },
    {
      "anonymous": false,
      "inputs": [
        {
          "indexed": true,
          "internalType": "address",
          "name": "holder",
          "type": "address"
        },
        {
          "indexed": false,
          "internalType": "uint256",
          "name": "amount",
          "type": "uint256"
        },
        {
          "indexed": false,
          "internalType": "uint256",
          "name": "valueUnits",
          "type": "uint256"
        }
      ],
      "name": "RefundRequested",
      "type": "event"
    },
    {
      "anonymous": false,
      "inputs": [
        {
          "indexed": true,
          "internalType": "address",
          "name": "from",
          "type": "address"
        },
        {
          "indexed": true,
          "internalType": "address",
          "name": "to",
          "type": "address"
        },
        {
          "indexed": false,
          "internalType": "uint256",
          "name": "value",
          "type": "uint256"
        }
      ],
      "name": "Transfer",
      "type": "event"
    },
    {
      "anonymous": false,
      "inputs": [
        {
          "indexed": false,
          "internalType": "address",
          "name": "account",
          "type": "address"
        }
      ],
      "name": "Unpaused",
      "type": "event"
    },
    {
      "inputs": [],
      "name": "BASE_PRICE_UNITS",
      "outputs": [
        {
          "internalType": "uint256",
          "name": "",
          "type": "uint256"
        }
      ],
      "stateMutability": "view",
      "type": "function"
    },
    {
      "inputs": [],
      "name": "CANCEL_WINDOW",
      "outputs": [
        {
          "internalType": "uint256",
          "name": "",
          "type": "uint256"
        }
      ],
      "stateMutability": "view",
      "type": "function"
    },
    {
      "inputs": [],
      "name": "LOCK_PERIOD",
      "outputs": [
        {
          "internalType": "uint256",
          "name": "",
          "type": "uint256"
        }
      ],
      "stateMutability": "view",
      "type": "function"
    },
    {
      "inputs": [],
      "name": "MAX_SUPPLY",
      "outputs": [
        {
          "internalType": "uint256",
          "name": "",
          "type": "uint256"
        }
      ],
      "stateMutability": "view",
      "type": "function"
    },
    {
      "inputs": [
        {
          "internalType": "address",
          "name": "owner",
          "type": "address"
        },
        {
          "internalType": "address",
          "name": "spender",
          "type": "address"
        }
      ],
      "name": "allowance",
      "outputs": [
        {
          "internalType": "uint256",
          "name": "",
          "type": "uint256"
        }
      ],
      "stateMutability": "view",
      "type": "function"
    },
    {
      "inputs": [
        {
          "internalType": "address",
          "name": "spender",
          "type": "address"
        },
        {
          "internalType": "uint256",
          "name": "value",
          "type": "uint256"
        }
      ],
      "name": "approve",
      "outputs": [
        {
          "internalType": "bool",
          "name": "",
          "type": "bool"
        }
      ],
      "stateMutability": "nonpayable",
      "type": "function"
    },
    {
      "inputs": [
        {
          "internalType": "address",
          "name": "account",
          "type": "address"
        }
      ],
      "name": "balanceOf",
      "outputs": [
        {
          "internalType": "uint256",
          "name": "",
          "type": "uint256"
        }
      ],
      "stateMutability": "view",
      "type": "function"
    },
    {
      "inputs": [
        {
          "internalType": "uint256",
          "name": "value",
          "type": "uint256"
        }
      ],
      "name": "burn",
      "outputs": [],
      "stateMutability": "nonpayable",
      "type": "function"
    },
    {
      "inputs": [
        {
          "internalType": "address",
          "name": "account",
          "type": "address"
        },
        {
          "internalType": "uint256",
          "name": "value",
          "type": "uint256"
        }
      ],
      "name": "burnFrom",
      "outputs": [],
      "stateMutability": "nonpayable",
      "type": "function"
    },
    {
      "inputs": [
        {
          "internalType": "uint256",
          "name": "amount",
          "type": "uint256"
        }
      ],
      "name": "cancelWithin24h",
      "outputs": [],
      "stateMutability": "nonpayable",
      "type": "function"
    },
    {
      "inputs": [],
      "name": "cap",
      "outputs": [
        {
          "internalType": "uint256",
          "name": "",
          "type": "uint256"
        }
      ],
      "stateMutability": "view",
      "type": "function"
    },
    {
      "inputs": [
        {
          "internalType": "address",
          "name": "holder",
          "type": "address"
        }
      ],
      "name": "currentMinPricePerTokenUnits",
      "outputs": [
        {
          "internalType": "uint256",
          "name": "",
          "type": "uint256"
        }
      ],
      "stateMutability": "view",
      "type": "function"
    },
    {
      "inputs": [
        {
          "internalType": "address",
          "name": "holder",
          "type": "address"
        }
      ],
      "name": "currentValueMultiplierBps",
      "outputs": [
        {
          "internalType": "uint256",
          "name": "multiplierBps",
          "type": "uint256"
        }
      ],
      "stateMutability": "view",
      "type": "function"
    },
    {
      "inputs": [],
      "name": "decimals",
      "outputs": [
        {
          "internalType": "uint8",
          "name": "",
          "type": "uint8"
        }
      ],
      "stateMutability": "pure",
      "type": "function"
    },
    {
      "inputs": [
        {
          "internalType": "address",
          "name": "to",
          "type": "address"
        },
        {
          "internalType": "uint256",
          "name": "amount",
          "type": "uint256"
        }
      ],
      "name": "educationalMint",
      "outputs": [],
      "stateMutability": "nonpayable",
      "type": "function"
    },
    {
      "inputs": [
        {
          "internalType": "address",
          "name": "",
          "type": "address"
        }
      ],
      "name": "holdings",
      "outputs": [
        {
          "internalType": "uint256",
          "name": "amount",
          "type": "uint256"
        },
        {
          "internalType": "uint64",
          "name": "firstPurchaseAt",
          "type": "uint64"
        }
      ],
      "stateMutability": "view",
      "type": "function"
    },
    {
      "inputs": [
        {
          "internalType": "address",
          "name": "holder",
          "type": "address"
        }
      ],
      "name": "loyaltyBonusAmount",
      "outputs": [
        {
          "internalType": "uint256",
          "name": "",
          "type": "uint256"
        }
      ],
      "stateMutability": "view",
      "type": "function"
    },
    {
      "inputs": [],
      "name": "name",
      "outputs": [
        {
          "internalType": "string",
          "name": "",
          "type": "string"
        }
      ],
      "stateMutability": "view",
      "type": "function"
    },
    {
      "inputs": [],
      "name": "owner",
      "outputs": [
        {
          "internalType": "address",
          "name": "",
          "type": "address"
        }
      ],
      "stateMutability": "view",
      "type": "function"
    },
    {
      "inputs": [
        {
          "internalType": "address",
          "name": "from",
          "type": "address"
        },
        {
          "internalType": "uint256",
          "name": "amount",
          "type": "uint256"
        }
      ],
      "name": "ownerBuyback",
      "outputs": [],
      "stateMutability": "nonpayable",
      "type": "function"
    },
    {
      "inputs": [],
      "name": "pause",
      "outputs": [],
      "stateMutability": "nonpayable",
      "type": "function"
    },
    {
      "inputs": [],
      "name": "paused",
      "outputs": [
        {
          "internalType": "bool",
          "name": "",
          "type": "bool"
        }
      ],
      "stateMutability": "view",
      "type": "function"
    },
    {
      "inputs": [
        {
          "internalType": "address",
          "name": "",
          "type": "address"
        }
      ],
      "name": "priorityEligible",
      "outputs": [
        {
          "internalType": "bool",
          "name": "",
          "type": "bool"
        }
      ],
      "stateMutability": "view",
      "type": "function"
    },
    {
      "inputs": [],
      "name": "renounceOwnership",
      "outputs": [],
      "stateMutability": "nonpayable",
      "type": "function"
    },
    {
      "inputs": [],
      "name": "symbol",
      "outputs": [
        {
          "internalType": "string",
          "name": "",
          "type": "string"
        }
      ],
      "stateMutability": "view",
      "type": "function"
    },
    {
      "inputs": [],
      "name": "totalSupply",
      "outputs": [
        {
          "internalType": "uint256",
          "name": "",
          "type": "uint256"
        }
      ],
      "stateMutability": "view",
      "type": "function"
    },
    {
      "inputs": [
        {
          "internalType": "address",
          "name": "to",
          "type": "address"
        },
        {
          "internalType": "uint256",
          "name": "value",
          "type": "uint256"
        }
      ],
      "name": "transfer",
      "outputs": [
        {
          "internalType": "bool",
          "name": "",
          "type": "bool"
        }
      ],
      "stateMutability": "nonpayable",
      "type": "function"
    },
    {
      "inputs": [
        {
          "internalType": "address",
          "name": "from",
          "type": "address"
        },
        {
          "internalType": "address",
          "name": "to",
          "type": "address"
        },
        {
          "internalType": "uint256",
          "name": "value",
          "type": "uint256"
        }
      ],
      "name": "transferFrom",
      "outputs": [
        {
          "internalType": "bool",
          "name": "",
          "type": "bool"
        }
      ],
      "stateMutability": "nonpayable",
      "type": "function"
    },
    {
      "inputs": [
        {
          "internalType": "address",
          "name": "newOwner",
          "type": "address"
        }
      ],
      "name": "transferOwnership",
      "outputs": [],
      "stateMutability": "nonpayable",
      "type": "function"
    },
    {
      "inputs": [],
      "name": "unpause",
      "outputs": [],
      "stateMutability": "nonpayable",
      "type": "function"
    }
  ],
  "bytecode": "0x60a06040523480156200001157600080fd5b5033620f424060405180604001604052806012815260200171135351158815da5b9948151bdad95b88158d60721b815250604051806040016040528060048152602001631355d50d60e21b8152508160039081620000709190620001f8565b5060046200007f8282620001f8565b50505080600003620000ac5760405163392e1e2760e01b8152600060048201526024015b60405180910390fd5b6080526005805460ff191690556001600160a01b038116620000e557604051631e4fbdf760e01b815260006004820152602401620000a3565b620000f081620000f7565b50620002c4565b600580546001600160a01b03838116610100818102610100600160a81b031985161790945560405193909204169182907f8be0079c531659141344cd1fd0a4f28419497f9722a3daafe3b4186f6b6457e090600090a35050565b634e487b7160e01b600052604160045260246000fd5b600181811c908216806200017c57607f821691505b6020821081036200019d57634e487b7160e01b600052602260045260246000fd5b50919050565b601f821115620001f3576000816000526020600020601f850160051c81016020861015620001ce5750805b601f850160051c820191505b81811015620001ef57828155600101620001da565b5050505b505050565b81516001600160401b0381111562000214576200021462000151565b6200022c8162000225845462000167565b84620001a3565b602080601f8311600181146200026457600084156200024b5750858301515b600019600386901b1c1916600185901b178555620001ef565b600085815260208120601f198616915b82811015620002955788860151825594840194600190910190840162000274565b5085821015620002b45787850151600019600388901b60f8161c191681555b5050505050600190811b01905550565b6080516114fa620002e7600039600081816102ae015261116101526114fa6000f3fe608060405234801561001057600080fd5b50600436106101da5760003560e01c80635c975abb1161010457806395d89b41116100a2578063dd3ced6311610071578063dd3ced63146103db578063dd62ed3e14610428578063e525907f14610461578063f2fde38b1461047457600080fd5b806395d89b411461039a578063a9059cbb146103a2578063b739ade4146103b5578063d9069e15146103c857600080fd5b806375c79f28116100de57806375c79f281461034c57806379cc6790146103565780638456cb59146103695780638da5cb5b1461037157600080fd5b80635c975abb1461031057806370a082311461031b578063715018a61461034457600080fd5b80632c4336f81161017c578063355274ea1161014b578063355274ea146102ac5780633f4ba83a146102d257806342966c68146102da5780635884f05b146102ed57600080fd5b80632c4336f81461026d578063313ce5671461028057806332cb6b0c1461028f57806334a71d011461029957600080fd5b80631287c0ba116101b85780631287c0ba1461023257806318160ddd146102475780631820cabb1461024f57806323b872dd1461025a57600080fd5b806301110687146101df57806306fdde03146101fa578063095ea7b31461020f575b600080fd5b6101e7600881565b6040519081526020015b60405180910390f35b610202610487565b6040516101f191906112dd565b61022261021d366004611348565b610519565b60405190151581526020016101f1565b610245610240366004611348565b610533565b005b6002546101e7565b6101e76301e1338081565b610222610268366004611372565b610643565b6101e761027b3660046113ae565b610667565b604051600081526020016101f1565b6101e7620f424081565b6101e76102a73660046113ae565b610710565b7f00000000000000000000000000000000000000000000000000000000000000006101e7565b6102456107f7565b6102456102e83660046113c9565b610809565b6102226102fb3660046113ae565b60076020526000908152604090205460ff1681565b60055460ff16610222565b6101e76103293660046113ae565b6001600160a01b031660009081526020819052604090205490565b610245610816565b6101e76201518081565b610245610364366004611348565b610828565b610245610841565b60055461010090046001600160a01b03166040516001600160a01b0390911681526020016101f1565b610202610851565b6102226103b0366004611348565b610860565b6102456103c33660046113c9565b61086e565b6101e76103d63660046113ae565b610a05565b61040b6103e93660046113ae565b600660205260009081526040902080546001909101546001600160401b031682565b604080519283526001600160401b039091166020830152016101f1565b6101e76104363660046113e2565b6001600160a01b03918216600090815260016020908152604080832093909416825291909152205490565b61024561046f366004611348565b610a32565b6102456104823660046113ae565b610b57565b60606003805461049690611415565b80601f01602080910402602001604051908101604052809291908181526020018280546104c290611415565b801561050f5780601f106104e45761010080835404028352916020019161050f565b820191906000526020600020905b8154815290600101906020018083116104f257829003601f168201915b5050505050905090565b600033610527818585610b92565b60019150505b92915050565b61053b610ba4565b6001600160a01b0382166105885760405162461bcd60e51b815260206004820152600f60248201526e486f6c64657220696e76616c69646f60881b60448201526064015b60405180910390fd5b600081116105c75760405162461bcd60e51b815260206004820152600c60248201526b043616e7469646164203e20360a41b604482015260640161057f565b6105d2823383610bd7565b6105dd823383610c55565b60006105e883610a05565b905060006105f68383611465565b60408051858152602081018390529192506001600160a01b038616917fce6abc4aa99ab2d137d5f7e34bec0e883a186fd2d76b29f2e1c30afcc68d7336910160405180910390a250505050565b600033610651858285610bd7565b61065c858585610e60565b506001949350505050565b6001600160a01b0381166000908152600660209081526040808320815180830190925280548252600101546001600160401b03169181018290529015806106ad57508051155b156106bb5750600092915050565b600081602001516001600160401b0316426106d6919061147c565b9050630784ce008110156106ee575060009392505050565b81516064906106fe90600a611465565b610708919061148f565b949350505050565b6001600160a01b0381166000908152600660209081526040808320815180830190925280548252600101546001600160401b031691810182905290820361075b575061271092915050565b600081602001516001600160401b031642610776919061147c565b90506301e13380808210156107915750612710949350505050565b61079c816002611465565b8210156107af57506130d4949350505050565b6107ba816003611465565b8210156107cd5750613a98949350505050565b6107d8816004611465565b8210156107eb575061445c949350505050565b50614e20949350505050565b6107ff610ba4565b610807610ebf565b565b6108133382610f11565b50565b61081e610ba4565b6108076000610f47565b610833823383610bd7565b61083d8282610f11565b5050565b610849610ba4565b610807610fa1565b60606004805461049690611415565b600033610527818585610e60565b336000908152600660205260408120600181015490916001600160401b0390911690036108d55760405162461bcd60e51b815260206004820152601560248201527453696e20636f6d707261207265676973747261646160581b604482015260640161057f565b60018101546108f19062015180906001600160401b03166114b1565b4211156109405760405162461bcd60e51b815260206004820152601e60248201527f56656e74616e612064652063616e63656c6163696f6e2076656e636964610000604482015260640161057f565b600082118015610951575080548211155b6109915760405162461bcd60e51b815260206004820152601160248201527043616e746964616420696e76616c69646160781b604482015260640161057f565b818160000160008282546109a5919061147c565b909155506109b590503383610f11565b60006109c2600884611465565b604080518581526020810183905291925033917f4c7e7010f4fcf12a6ff2436b38a5e3d0ef3e695830216259fccf95a56b2bb04d910160405180910390a2505050565b600080610a1183610710565b9050612710610a21826008611465565b610a2b919061148f565b9392505050565b610a3a610ba4565b6001600160a01b038216610a835760405162461bcd60e51b815260206004820152601060248201526f44657374696e6f20696e76616c69646f60801b604482015260640161057f565b60008111610ac25760405162461bcd60e51b815260206004820152600c60248201526b043616e7469646164203e20360a41b604482015260640161057f565b610acc8282610fde565b6001600160a01b0382166000908152600660205260408120805490918391839190610af89084906114b1565b909155505060018101546001600160401b0316600003610b315760018101805467ffffffffffffffff1916426001600160401b03161790555b50506001600160a01b03166000908152600760205260409020805460ff19166001179055565b610b5f610ba4565b6001600160a01b038116610b8957604051631e4fbdf760e01b81526000600482015260240161057f565b61081381610f47565b610b9f8383836001611014565b505050565b6005546001600160a01b036101009091041633146108075760405163118cdaa760e01b815233600482015260240161057f565b6001600160a01b038381166000908152600160209081526040808320938616835292905220546000198114610c4f5781811015610c4057604051637dc7a0d960e11b81526001600160a01b0384166004820152602481018290526044810183905260640161057f565b610c4f84848484036000611014565b50505050565b6001600160a01b03831615801590610c7557506001600160a01b03821615155b15610e55576005546001600160a01b038381166101009092041614610d80576001600160a01b0383166000908152600660209081526040808320815180830190925280548252600101546001600160401b03169181018290529103610d125760405162461bcd60e51b815260206004820152601360248201527253696e20666563686120646520636f6d70726160681b604482015260640161057f565b6301e1338081602001516001600160401b0316610d2f91906114b1565b421015610d7e5760405162461bcd60e51b815260206004820152601f60248201527f546f6b656e7320626c6f71756561646f7320656c207072696d657220616e6f00604482015260640161057f565b505b8015610e55576001600160a01b038316600090815260066020526040902080548211610dc55781816000016000828254610dba919061147c565b90915550610dca9050565b600081555b6001600160a01b0383166000908152600660205260408120805490918491839190610df69084906114b1565b909155505060018101546001600160401b0316600003610e2f5760018101805467ffffffffffffffff1916426001600160401b03161790555b50506001600160a01b0382166000908152600760205260409020805460ff191660011790555b610b9f8383836110e9565b6001600160a01b038316610e8a57604051634b637e8f60e11b81526000600482015260240161057f565b6001600160a01b038216610eb45760405163ec442f0560e01b81526000600482015260240161057f565b610b9f838383610c55565b610ec76110fc565b6005805460ff191690557f5db9ee0a495bf2e6ff9c91a7834c1ba4fdd244a5e8aa4e537bd38aeae4b073aa335b6040516001600160a01b03909116815260200160405180910390a1565b6001600160a01b038216610f3b57604051634b637e8f60e11b81526000600482015260240161057f565b61083d82600083610c55565b600580546001600160a01b03838116610100818102610100600160a81b031985161790945560405193909204169182907f8be0079c531659141344cd1fd0a4f28419497f9722a3daafe3b4186f6b6457e090600090a35050565b610fa961111f565b6005805460ff191660011790557f62e78cea01bee320cd4e420270b5ea74000d11b0c9f74754ebdbfc544b05a258610ef43390565b6001600160a01b0382166110085760405163ec442f0560e01b81526000600482015260240161057f565b61083d60008383610c55565b6001600160a01b03841661103e5760405163e602df0560e01b81526000600482015260240161057f565b6001600160a01b03831661106857604051634a1406b160e11b81526000600482015260240161057f565b6001600160a01b0380851660009081526001602090815260408083209387168352929052208290558015610c4f57826001600160a01b0316846001600160a01b03167f8c5be1e5ebec7d5bd14f71427d1e84f3dd0314c0f7b2291e5b200ac8c7c3b925846040516110db91815260200190565b60405180910390a350505050565b6110f161111f565b610b9f838383611143565b60055460ff1661080757604051638dfc202b60e01b815260040160405180910390fd5b60055460ff16156108075760405163d93c066560e01b815260040160405180910390fd5b61114e8383836111b3565b6001600160a01b038316610b9f576002547f000000000000000000000000000000000000000000000000000000000000000090818111156111ac5760405163279e7e1560e21b8152600481018290526024810183905260440161057f565b5050505050565b6001600160a01b0383166111de5780600260008282546111d391906114b1565b909155506112509050565b6001600160a01b038316600090815260208190526040902054818110156112315760405163391434e360e21b81526001600160a01b0385166004820152602481018290526044810183905260640161057f565b6001600160a01b03841660009081526020819052604090209082900390555b6001600160a01b03821661126c5760028054829003905561128b565b6001600160a01b03821660009081526020819052604090208054820190555b816001600160a01b0316836001600160a01b03167fddf252ad1be2c89b69c2b068fc378daa952ba7f163c4a11628f55a4df523b3ef836040516112d091815260200190565b60405180910390a3505050565b60006020808352835180602085015260005b8181101561130b578581018301518582016040015282016112ef565b506000604082860101526040601f19601f8301168501019250505092915050565b80356001600160a01b038116811461134357600080fd5b919050565b6000806040838503121561135b57600080fd5b6113648361132c565b946020939093013593505050565b60008060006060848603121561138757600080fd5b6113908461132c565b925061139e6020850161132c565b9150604084013590509250925092565b6000602082840312156113c057600080fd5b610a2b8261132c565b6000602082840312156113db57600080fd5b5035919050565b600080604083850312156113f557600080fd5b6113fe8361132c565b915061140c6020840161132c565b90509250929050565b600181811c9082168061142957607f821691505b60208210810361144957634e487b7160e01b600052602260045260246000fd5b50919050565b634e487b7160e01b600052601160045260246000fd5b808202811582820484141761052d5761052d61144f565b8181038181111561052d5761052d61144f565b6000826114ac57634e487b7160e01b600052601260045260246000fd5b500490565b8082018082111561052d5761052d61144f56fea264697066735822122023c01293f7501a011d672504c81adf6984d76e5970d388e3ad6c2fb763a1cd9c64736f6c63430008180033",
  "linkReferences": {},
  "deployedLinkReferences": {}
}