{
  "_format": "hh-sol-artifact-1",
  "contractName": "MMDVWineTokenV2",
  "sourceName": "contracts/MMDVWineTokenV2.sol",
  "abi": [
    {
      "inputs": [
        {
          "internalType": "uint256",
          "name": "cap_",
          "type": "uint256"
        }
      ],
      "stateMutability": "nonpayable",
      "type": "constructor"
    },
    {
      "inputs": [
        {
          "internalType": "uint256",
          "name": "increasedSupply",
          "type": "uint256"
        },
        {
          "internalType": "uint256",
          "name": "cap",
          "type": "uint256"
        }
      ],
      "name": "ERC20ExceededCap",
      "type": "error"
    },
    {
      "inputs": [
        {
          "internalType": "address",
          "name": "spender",
          "type": "address"
        },
        {
          "internalType": "uint256",
          "name": "allowance",
          "type": "uint256"
        },
        {
          "internalType": "uint256",
          "name": "needed",
          "type": "uint256"
        }
      ],
      "name": "ERC20InsufficientAllowance",
      "type": "error"
    },
    {
      "inputs": [
        {
          "internalType": "address",
          "name": "sender",
          "type": "address"
        },
        {
          "internalType": "uint256",
          "name": "balance",
          "type": "uint256"
        },
        {
          "internalType": "uint256",
          "name": "needed",
          "type": "uint256"
        }
      ],
      "name": "ERC20InsufficientBalance",
      "type": "error"
    },
    {
      "inputs": [
        {
          "internalType": "address",
          "name": "approver",
          "type": "address"
        }
      ],
      "name": "ERC20InvalidApprover",
      "type": "error"
    },
    {
      "inputs": [
        {
          "internalType": "uint256",
          "name": "cap",
          "type": "uint256"
        }
      ],
      "name": "ERC20InvalidCap",
      "type": "error"
    },
    {
      "inputs": [
        {
          "internalType": "address",
          "name": "receiver",
          "type": "address"
        }
      ],
      "name": "ERC20InvalidReceiver",
      "type": "error"
    },
    {
      "inputs": [
        {
          "internalType": "address",
          "name": "sender",
          "type": "address"
        }
      ],
      "name": "ERC20InvalidSender",
      "type": "error"
    },
    {
      "inputs": [
        {
          "internalType": "address",
          "name": "spender",
          "type": "address"
        }
      ],
      "name": "ERC20InvalidSpender",
      "type": "error"
    },
    {
      "inputs": [],
      "name": "EnforcedPause",
      "type": "error"
    },
    {
      "inputs": [],
      "name": "ExpectedPause",
      "type": "error"
    },
    {
      "inputs": [
        {
          "internalType": "address",
          "name": "owner",
          "type": "address"
        }
      ],
      "name": "OwnableInvalidOwner",
      "type": "error"
    },
    {
      "inputs": [
        {
          "internalType": "address",
          "name": "account",
          "type": "address"
        }
      ],
      "name": "OwnableUnauthorizedAccount",
      "type": "error"
    },
    {
      "anonymous": false,
      "inputs": [
        {
          "indexed": true,
          "internalType": "address",
          "name": "owner",
          "type": "address"
        },
        {
          "indexed": true,
          "internalType": "address",
          "name": "spender",
          "type": "address"
        },
        {
          "indexed": false,
          "internalType": "uint256",
          "name": "value",
          "type": "uint256"
        }
      ],
      "name": "Approval",
      "type": "event"
    },
    {
      "anonymous": false,
      "inputs": [
        {
          "indexed": true,
          "internalType": "address",
          "name": "previousOwner",
          "type": "address"
        },
        {
          "indexed": true,
          "internalType": "address",
          "name": "newOwner",
          "type": "address"
        }
      ],
      "name": "OwnershipTransferred",
      "type": "event"
    },
    {
      "anonymous": false,
      "inputs": [
        {
          "indexed": false,
          "internalType": "address",
          "name": "account",
          "type": "address"
        }
      ],
      "name": "Paused",
      "type": "event"
    },
    {
      "anonymous": false,
      "inputs": [
        {
          "indexed": true,
          "internalType": "address",
          "name": "from",
          "type": "address"
        },
        {
          "indexed": true,
          "internalType": "address",
          "name": "to",
          "type": "address"
        },
        {
          "indexed": false,
          "internalType": "uint256",
          "name": "value",
          "type": "uint256"
        }
      ],
      "name": "Transfer",
      "type": "event"
    },
    {
      "anonymous": false,
      "inputs": [
        {
          "indexed": false,
          "internalType": "address",
          "name": "account",
          "type": "address"
        }
      ],
      "name": "Unpaused",
      "type": "event"
    },
    {
      "inputs": [],
      "name": "BASE_PRICE_UNITS",
      "outputs": [
        {
          "internalType": "uint256",
          "name": "",
          "type": "uint256"
        }
      ],
      "stateMutability": "view",
      "type": "function"
    },
    {
      "inputs": [
        {
          "internalType": "address",
          "name": "owner",
          "type": "address"
        },
        {
          "internalType": "address",
          "name": "spender",
          "type": "address"
        }
      ],
      "name": "allowance",
      "outputs": [
        {
          "internalType": "uint256",
          "name": "",
          "type": "uint256"
        }
      ],
      "stateMutability": "view",
      "type": "function"
    },
    {
      "inputs": [
        {
          "internalType": "address",
          "name": "spender",
          "type": "address"
        },
        {
          "internalType": "uint256",
          "name": "value",
          "type": "uint256"
        }
      ],
      "name": "approve",
      "outputs": [
        {
          "internalType": "bool",
          "name": "",
          "type": "bool"
        }
      ],
      "stateMutability": "nonpayable",
      "type": "function"
    },
    {
      "inputs": [
        {
          "internalType": "address",
          "name": "account",
          "type": "address"
        }
      ],
      "name": "balanceOf",
      "outputs": [
        {
          "internalType": "uint256",
          "name": "",
          "type": "uint256"
        }
      ],
      "stateMutability": "view",
      "type": "function"
    },
    {
      "inputs": [
        {
          "internalType": "uint256",
          "name": "value",
          "type": "uint256"
        }
      ],
      "name": "burn",
      "outputs": [],
      "stateMutability": "nonpayable",
      "type": "function"
    },
    {
      "inputs": [
        {
          "internalType": "address",
          "name": "account",
          "type": "address"
        },
        {
          "internalType": "uint256",
          "name": "value",
          "type": "uint256"
        }
      ],
      "name": "burnFrom",
      "outputs": [],
      "stateMutability": "nonpayable",
      "type": "function"
    },
    {
      "inputs": [],
      "name": "cap",
      "outputs": [
        {
          "internalType": "uint256",
          "name": "",
          "type": "uint256"
        }
      ],
      "stateMutability": "view",
      "type": "function"
    },
    {
      "inputs": [
        {
          "internalType": "address",
          "name": "holder",
          "type": "address"
        }
      ],
      "name": "currentValueMultiplier",
      "outputs": [
        {
          "internalType": "uint256",
          "name": "multiplierBps",
          "type": "uint256"
        }
      ],
      "stateMutability": "view",
      "type": "function"
    },
    {
      "inputs": [],
      "name": "decimals",
      "outputs": [
        {
          "internalType": "uint8",
          "name": "",
          "type": "uint8"
        }
      ],
      "stateMutability": "view",
      "type": "function"
    },
    {
      "inputs": [
        {
          "internalType": "address",
          "name": "to",
          "type": "address"
        },
        {
          "internalType": "uint256",
          "name": "amount",
          "type": "uint256"
        }
      ],
      "name": "educationalMint",
      "outputs": [],
      "stateMutability": "nonpayable",
      "type": "function"
    },
    {
      "inputs": [
        {
          "internalType": "address",
          "name": "",
          "type": "address"
        }
      ],
      "name": "holdings",
      "outputs": [
        {
          "internalType": "uint256",
          "name": "amount",
          "type": "uint256"
        },
        {
          "internalType": "uint64",
          "name": "firstPurchaseAt",
          "type": "uint64"
        }
      ],
      "stateMutability": "view",
      "type": "function"
    },
    {
      "inputs": [
        {
          "internalType": "address",
          "name": "holder",
          "type": "address"
        }
      ],
      "name": "loyaltyBonusAmount",
      "outputs": [
        {
          "internalType": "uint256",
          "name": "",
          "type": "uint256"
        }
      ],
      "stateMutability": "view",
      "type": "function"
    },
    {
      "inputs": [],
      "name": "name",
      "outputs": [
        {
          "internalType": "string",
          "name": "",
          "type": "string"
        }
      ],
      "stateMutability": "view",
      "type": "function"
    },
    {
      "inputs": [],
      "name": "owner",
      "outputs": [
        {
          "internalType": "address",
          "name": "",
          "type": "address"
        }
      ],
      "stateMutability": "view",
      "type": "function"
    },
    {
      "inputs": [],
      "name": "pause",
      "outputs": [],
      "stateMutability": "nonpayable",
      "type": "function"
    },
    {
      "inputs": [],
      "name": "paused",
      "outputs": [
        {
          "internalType": "bool",
          "name": "",
          "type": "bool"
        }
      ],
      "stateMutability": "view",
      "type": "function"
    },
    {
      "inputs": [],
      "name": "renounceOwnership",
      "outputs": [],
      "stateMutability": "nonpayable",
      "type": "function"
    },
    {
      "inputs": [],
      "name": "symbol",
      "outputs": [
        {
          "internalType": "string",
          "name": "",
          "type": "string"
        }
      ],
      "stateMutability": "view",
      "type": "function"
    },
    {
      "inputs": [],
      "name": "totalSupply",
      "outputs": [
        {
          "internalType": "uint256",
          "name": "",
          "type": "uint256"
        }
      ],
      "stateMutability": "view",
      "type": "function"
    },
    {
      "inputs": [
        {
          "internalType": "address",
          "name": "to",
          "type": "address"
        },
        {
          "internalType": "uint256",
          "name": "value",
          "type": "uint256"
        }
      ],
      "name": "transfer",
      "outputs": [
        {
          "internalType": "bool",
          "name": "",
          "type": "bool"
        }
      ],
      "stateMutability": "nonpayable",
      "type": "function"
    },
    {
      "inputs": [
        {
          "internalType": "address",
          "name": "from",
          "type": "address"
        },
        {
          "internalType": "address",
          "name": "to",
          "type": "address"
        },
        {
          "internalType": "uint256",
          "name": "value",
          "type": "uint256"
        }
      ],
      "name": "transferFrom",
      "outputs": [
        {
          "internalType": "bool",
          "name": "",
          "type": "bool"
        }
      ],
      "stateMutability": "nonpayable",
      "type": "function"
    },
    {
      "inputs": [
        {
          "internalType": "address",
          "name": "newOwner",
          "type": "address"
        }
      ],
      "name": "transferOwnership",
      "outputs": [],
      "stateMutability": "nonpayable",
      "type": "function"
    },
    {
      "inputs": [],
      "name": "unpause",
      "outputs": [],
      "stateMutability": "nonpayable",
      "type": "function"
    }
  ],
  "bytecode": "0x60a06040523480156200001157600080fd5b50604051620011a0380380620011a0833981016040819052620000349162000171565b33816040518060400160405280601281526020017126a6a22b102bb4b732902a37b5b2b7102b1960711b8152506040518060400160405280600481526020016326abaa1960e11b81525081600390816200008f919062000232565b5060046200009e828262000232565b50505080600003620000cb5760405163392e1e2760e01b8152600060048201526024015b60405180910390fd5b6080526005805460ff191690556001600160a01b0381166200010457604051631e4fbdf760e01b815260006004820152602401620000c2565b6200010f8162000117565b5050620002fe565b600580546001600160a01b03838116610100818102610100600160a81b031985161790945560405193909204169182907f8be0079c531659141344cd1fd0a4f28419497f9722a3daafe3b4186f6b6457e090600090a35050565b6000602082840312156200018457600080fd5b5051919050565b634e487b7160e01b600052604160045260246000fd5b600181811c90821680620001b657607f821691505b602082108103620001d757634e487b7160e01b600052602260045260246000fd5b50919050565b601f8211156200022d576000816000526020600020601f850160051c81016020861015620002085750805b601f850160051c820191505b81811015620002295782815560010162000214565b5050505b505050565b81516001600160401b038111156200024e576200024e6200018b565b62000266816200025f8454620001a1565b84620001dd565b602080601f8311600181146200029e5760008415620002855750858301515b600019600386901b1c1916600185901b17855562000229565b600085815260208120601f198616915b82811015620002cf57888601518255948401946001909101908401620002ae565b5085821015620002ee5787850151600019600388901b60f8161c191681555b5050505050600190811b01905550565b608051610e7f62000321600039600081816101e40152610adf0152610e7f6000f3fe608060405234801561001057600080fd5b506004361061014d5760003560e01c80635c975abb116100c357806395d89b411161007c57806395d89b41146102b8578063a9059cbb146102c0578063dd3ced63146102d3578063dd62ed3e14610322578063e525907f1461035b578063f2fde38b1461036e57600080fd5b80635c975abb1461023857806370a0823114610243578063715018a61461026c57806379cc6790146102745780638456cb59146102875780638da5cb5b1461028f57600080fd5b80632c4336f8116101155780632c4336f8146101c0578063313ce567146101d3578063355274ea146101e25780633f4ba83a1461020857806342966c68146102125780635c342ae81461022557600080fd5b8063011106871461015257806306fdde031461016d578063095ea7b31461018257806318160ddd146101a557806323b872dd146101ad575b600080fd5b61015a600a81565b6040519081526020015b60405180910390f35b610175610381565b6040516101649190610c5b565b610195610190366004610cc6565b610413565b6040519015158152602001610164565b60025461015a565b6101956101bb366004610cf0565b61042d565b61015a6101ce366004610d2c565b610451565b60405160128152602001610164565b7f000000000000000000000000000000000000000000000000000000000000000061015a565b6102106104fc565b005b610210610220366004610d4e565b61050e565b61015a610233366004610d2c565b61051b565b60055460ff16610195565b61015a610251366004610d2c565b6001600160a01b031660009081526020819052604090205490565b610210610604565b610210610282366004610cc6565b610616565b61021061062f565b60055461010090046001600160a01b03166040516001600160a01b039091168152602001610164565b61017561063f565b6101956102ce366004610cc6565b61064e565b6103046102e1366004610d2c565b6006602052600090815260409020805460019091015467ffffffffffffffff1682565b6040805192835267ffffffffffffffff909116602083015201610164565b61015a610330366004610d67565b6001600160a01b03918216600090815260016020908152604080832093909416825291909152205490565b610210610369366004610cc6565b61065c565b61021061037c366004610d2c565b6106da565b60606003805461039090610d9a565b80601f01602080910402602001604051908101604052809291908181526020018280546103bc90610d9a565b80156104095780601f106103de57610100808354040283529160200191610409565b820191906000526020600020905b8154815290600101906020018083116103ec57829003601f168201915b5050505050905090565b60003361042181858561071a565b60019150505b92915050565b60003361043b858285610727565b6104468585856107a5565b506001949350505050565b6001600160a01b03811660009081526006602090815260408083208151808301909252805482526001015467ffffffffffffffff1691810182905290158061049857508051155b156104a65750600092915050565b6000816020015167ffffffffffffffff16426104c29190610dea565b9050630784ce008110156104da575060009392505050565b81516064906104ea90600a610dfd565b6104f49190610e14565b949350505050565b610504610804565b61050c610837565b565b6105183382610889565b50565b6001600160a01b03811660009081526006602090815260408083208151808301909252805482526001015467ffffffffffffffff16918101829052908203610567575061271092915050565b6000816020015167ffffffffffffffff16426105839190610dea565b90506301e133808082101561059e5750612710949350505050565b6105a9816002610dfd565b8210156105bc5750612904949350505050565b6105c7816003610dfd565b8210156105da5750612af8949350505050565b6105e5816004610dfd565b8210156105f85750612cec949350505050565b50612ee0949350505050565b61060c610804565b61050c60006108bf565b610621823383610727565b61062b8282610889565b5050565b610637610804565b61050c610919565b60606004805461039090610d9a565b6000336104218185856107a5565b610664610804565b61066e8282610956565b6001600160a01b038216600090815260066020526040812080549091839183919061069a908490610e36565b9091555050600181015467ffffffffffffffff166000036106d55760018101805467ffffffffffffffff19164267ffffffffffffffff161790555b505050565b6106e2610804565b6001600160a01b03811661071157604051631e4fbdf760e01b8152600060048201526024015b60405180910390fd5b610518816108bf565b6106d5838383600161098c565b6001600160a01b03838116600090815260016020908152604080832093861683529290522054600019811461079f578181101561079057604051637dc7a0d960e11b81526001600160a01b03841660048201526024810182905260448101839052606401610708565b61079f8484848403600061098c565b50505050565b6001600160a01b0383166107cf57604051634b637e8f60e11b815260006004820152602401610708565b6001600160a01b0382166107f95760405163ec442f0560e01b815260006004820152602401610708565b6106d5838383610a61565b6005546001600160a01b0361010090910416331461050c5760405163118cdaa760e01b8152336004820152602401610708565b61083f610a6c565b6005805460ff191690557f5db9ee0a495bf2e6ff9c91a7834c1ba4fdd244a5e8aa4e537bd38aeae4b073aa335b6040516001600160a01b03909116815260200160405180910390a1565b6001600160a01b0382166108b357604051634b637e8f60e11b815260006004820152602401610708565b61062b82600083610a61565b600580546001600160a01b03838116610100818102610100600160a81b031985161790945560405193909204169182907f8be0079c531659141344cd1fd0a4f28419497f9722a3daafe3b4186f6b6457e090600090a35050565b610921610a8f565b6005805460ff191660011790557f62e78cea01bee320cd4e420270b5ea74000d11b0c9f74754ebdbfc544b05a25861086c3390565b6001600160a01b0382166109805760405163ec442f0560e01b815260006004820152602401610708565b61062b60008383610a61565b6001600160a01b0384166109b65760405163e602df0560e01b815260006004820152602401610708565b6001600160a01b0383166109e057604051634a1406b160e11b815260006004820152602401610708565b6001600160a01b038085166000908152600160209081526040808320938716835292905220829055801561079f57826001600160a01b0316846001600160a01b03167f8c5be1e5ebec7d5bd14f71427d1e84f3dd0314c0f7b2291e5b200ac8c7c3b92584604051610a5391815260200190565b60405180910390a350505050565b6106d5838383610ab3565b60055460ff1661050c57604051638dfc202b60e01b815260040160405180910390fd5b60055460ff161561050c5760405163d93c066560e01b815260040160405180910390fd5b610abb610a8f565b6106d5838383610acc838383610b31565b6001600160a01b0383166106d5576002547f00000000000000000000000000000000000000000000000000000000000000009081811115610b2a5760405163279e7e1560e21b81526004810182905260248101839052604401610708565b5050505050565b6001600160a01b038316610b5c578060026000828254610b519190610e36565b90915550610bce9050565b6001600160a01b03831660009081526020819052604090205481811015610baf5760405163391434e360e21b81526001600160a01b03851660048201526024810182905260448101839052606401610708565b6001600160a01b03841660009081526020819052604090209082900390555b6001600160a01b038216610bea57600280548290039055610c09565b6001600160a01b03821660009081526020819052604090208054820190555b816001600160a01b0316836001600160a01b03167fddf252ad1be2c89b69c2b068fc378daa952ba7f163c4a11628f55a4df523b3ef83604051610c4e91815260200190565b60405180910390a3505050565b60006020808352835180602085015260005b81811015610c8957858101830151858201604001528201610c6d565b506000604082860101526040601f19601f8301168501019250505092915050565b80356001600160a01b0381168114610cc157600080fd5b919050565b60008060408385031215610cd957600080fd5b610ce283610caa565b946020939093013593505050565b600080600060608486031215610d0557600080fd5b610d0e84610caa565b9250610d1c60208501610caa565b9150604084013590509250925092565b600060208284031215610d3e57600080fd5b610d4782610caa565b9392505050565b600060208284031215610d6057600080fd5b5035919050565b60008060408385031215610d7a57600080fd5b610d8383610caa565b9150610d9160208401610caa565b90509250929050565b600181811c90821680610dae57607f821691505b602082108103610dce57634e487b7160e01b600052602260045260246000fd5b50919050565b634e487b7160e01b600052601160045260246000fd5b8181038181111561042757610427610dd4565b808202811582820484141761042757610427610dd4565b600082610e3157634e487b7160e01b600052601260045260246000fd5b500490565b8082018082111561042757610427610dd456fea2646970667358221220fb6332d5515bcb28e0762bcc70e3137c204788a8a02234d6d62b62c2f732fa7364736f6c63430008180033",
  "linkReferences": {},
  "deployedLinkReferences": {}
}