{
  "_format": "hh-sol-artifact-1",
  "contractName": "Voting",
  "sourceName": "contracts/Voting.sol",
  "abi": [
    {
      "inputs": [
        {
          "internalType": "string[]",
          "name": "_names",
          "type": "string[]"
        }
      ],
      "stateMutability": "nonpayable",
      "type": "constructor"
    },
    {
      "anonymous": false,
      "inputs": [
        {
          "indexed": true,
          "internalType": "uint256",
          "name": "id",
          "type": "uint256"
        },
        {
          "indexed": false,
          "internalType": "string",
          "name": "name",
          "type": "string"
        }
      ],
      "name": "CandidateAdded",
      "type": "event"
    },
    {
      "anonymous": false,
      "inputs": [
        {
          "indexed": true,
          "internalType": "address",
          "name": "voter",
          "type": "address"
        },
        {
          "indexed": true,
          "internalType": "uint256",
          "name": "candidateId",
          "type": "uint256"
        }
      ],
      "name": "VoteCast",
      "type": "event"
    },
    {
      "anonymous": false,
      "inputs": [],
      "name": "VotingClosed",
      "type": "event"
    },
    {
      "anonymous": false,
      "inputs": [],
      "name": "VotingOpened",
      "type": "event"
    },
    {
      "inputs": [
        {
          "internalType": "uint256",
          "name": "a",
          "type": "uint256"
        },
        {
          "internalType": "uint256",
          "name": "b",
          "type": "uint256"
        }
      ],
      "name": "addPure",
      "outputs": [
        {
          "internalType": "uint256",
          "name": "",
          "type": "uint256"
        }
      ],
      "stateMutability": "pure",
      "type": "function"
    },
    {
      "inputs": [
        {
          "internalType": "uint256",
          "name": "",
          "type": "uint256"
        }
      ],
      "name": "candidates",
      "outputs": [
        {
          "internalType": "string",
          "name": "name",
          "type": "string"
        },
        {
          "internalType": "uint256",
          "name": "votes",
          "type": "uint256"
        }
      ],
      "stateMutability": "view",
      "type": "function"
    },
    {
      "inputs": [],
      "name": "candidatesCount",
      "outputs": [
        {
          "internalType": "uint256",
          "name": "",
          "type": "uint256"
        }
      ],
      "stateMutability": "view",
      "type": "function"
    },
    {
      "inputs": [],
      "name": "closeVoting",
      "outputs": [],
      "stateMutability": "nonpayable",
      "type": "function"
    },
    {
      "inputs": [
        {
          "internalType": "uint256",
          "name": "id",
          "type": "uint256"
        }
      ],
      "name": "getCandidate",
      "outputs": [
        {
          "internalType": "string",
          "name": "name",
          "type": "string"
        },
        {
          "internalType": "uint256",
          "name": "votes",
          "type": "uint256"
        }
      ],
      "stateMutability": "view",
      "type": "function"
    },
    {
      "inputs": [
        {
          "internalType": "address",
          "name": "",
          "type": "address"
        }
      ],
      "name": "hasVoted",
      "outputs": [
        {
          "internalType": "bool",
          "name": "",
          "type": "bool"
        }
      ],
      "stateMutability": "view",
      "type": "function"
    },
    {
      "inputs": [],
      "name": "owner",
      "outputs": [
        {
          "internalType": "address",
          "name": "",
          "type": "address"
        }
      ],
      "stateMutability": "view",
      "type": "function"
    },
    {
      "inputs": [
        {
          "internalType": "uint256",
          "name": "candidateId",
          "type": "uint256"
        }
      ],
      "name": "vote",
      "outputs": [],
      "stateMutability": "nonpayable",
      "type": "function"
    },
    {
      "inputs": [],
      "name": "votingOpen",
      "outputs": [
        {
          "internalType": "bool",
          "name": "",
          "type": "bool"
        }
      ],
      "stateMutability": "view",
      "type": "function"
    }
  ],
  "bytecode": "0x60806040523480156200001157600080fd5b506040516200159d3803806200159d833981810160405281019062000037919062000451565b336000806101000a81548173ffffffffffffffffffffffffffffffffffffffff021916908373ffffffffffffffffffffffffffffffffffffffff16021790555060005b8151811015620001735760016040518060400160405280848481518110620000a757620000a6620004a2565b5b60200260200101518152602001600081525090806001815401808255809150506001900390600052602060002090600202016000909190919091506000820151816000019081620000f991906200071c565b50602082015181600101555050807fe83b2a43e7e82d975c8a0a6d2f045153c869e111136a34d1889ab7b598e396a38383815181106200013e576200013d620004a2565b5b602002602001015160405162000155919062000855565b60405180910390a280806200016a90620008a8565b9150506200007a565b506001600060146101000a81548160ff0219169083151502179055507fa737faa632a36c00ccb4220893426e922f9442f1cab67acd8301f88a596d4abc60405160405180910390a150620008f5565b6000604051905090565b600080fd5b600080fd5b600080fd5b6000601f19601f8301169050919050565b7f4e487b7100000000000000000000000000000000000000000000000000000000600052604160045260246000fd5b6200022682620001db565b810181811067ffffffffffffffff82111715620002485762000247620001ec565b5b80604052505050565b60006200025d620001c2565b90506200026b82826200021b565b919050565b600067ffffffffffffffff8211156200028e576200028d620001ec565b5b602082029050602081019050919050565b600080fd5b600080fd5b600067ffffffffffffffff821115620002c757620002c6620001ec565b5b620002d282620001db565b9050602081019050919050565b60005b83811015620002ff578082015181840152602081019050620002e2565b60008484015250505050565b6000620003226200031c84620002a9565b62000251565b905082815260208101848484011115620003415762000340620002a4565b5b6200034e848285620002df565b509392505050565b600082601f8301126200036e576200036d620001d6565b5b8151620003808482602086016200030b565b91505092915050565b6000620003a06200039a8462000270565b62000251565b90508083825260208201905060208402830185811115620003c657620003c56200029f565b5b835b818110156200041457805167ffffffffffffffff811115620003ef57620003ee620001d6565b5b808601620003fe898262000356565b85526020850194505050602081019050620003c8565b5050509392505050565b600082601f830112620004365762000435620001d6565b5b81516200044884826020860162000389565b91505092915050565b6000602082840312156200046a5762000469620001cc565b5b600082015167ffffffffffffffff8111156200048b576200048a620001d1565b5b62000499848285016200041e565b91505092915050565b7f4e487b7100000000000000000000000000000000000000000000000000000000600052603260045260246000fd5b600081519050919050565b7f4e487b7100000000000000000000000000000000000000000000000000000000600052602260045260246000fd5b600060028204905060018216806200052457607f821691505b6020821081036200053a5762000539620004dc565b5b50919050565b60008190508160005260206000209050919050565b60006020601f8301049050919050565b600082821b905092915050565b600060088302620005a47fffffffffffffffffffffffffffffffffffffffffffffffffffffffffffffffff8262000565565b620005b0868362000565565b95508019841693508086168417925050509392505050565b6000819050919050565b6000819050919050565b6000620005fd620005f7620005f184620005c8565b620005d2565b620005c8565b9050919050565b6000819050919050565b6200061983620005dc565b62000631620006288262000604565b84845462000572565b825550505050565b600090565b6200064862000639565b620006558184846200060e565b505050565b5b818110156200067d57620006716000826200063e565b6001810190506200065b565b5050565b601f821115620006cc57620006968162000540565b620006a18462000555565b81016020851015620006b1578190505b620006c9620006c08562000555565b8301826200065a565b50505b505050565b600082821c905092915050565b6000620006f160001984600802620006d1565b1980831691505092915050565b60006200070c8383620006de565b9150826002028217905092915050565b6200072782620004d1565b67ffffffffffffffff811115620007435762000742620001ec565b5b6200074f82546200050b565b6200075c82828562000681565b600060209050601f8311600181146200079457600084156200077f578287015190505b6200078b8582620006fe565b865550620007fb565b601f198416620007a48662000540565b60005b82811015620007ce57848901518255600182019150602085019450602081019050620007a7565b86831015620007ee5784890151620007ea601f891682620006de565b8355505b6001600288020188555050505b505050505050565b600082825260208201905092915050565b60006200082182620004d1565b6200082d818562000803565b93506200083f818560208601620002df565b6200084a81620001db565b840191505092915050565b6000602082019050818103600083015262000871818462000814565b905092915050565b7f4e487b7100000000000000000000000000000000000000000000000000000000600052601160045260246000fd5b6000620008b582620005c8565b91507fffffffffffffffffffffffffffffffffffffffffffffffffffffffffffffffff8203620008ea57620008e962000879565b5b600182019050919050565b610c9880620009056000396000f3fe608060405234801561001057600080fd5b50600436106100935760003560e01c806335b8e8201161006657806335b8e82014610133578063459dc56c146101645780638da5cb5b14610194578063a95824b4146101b2578063c631b292146101d057610093565b80630121b93f1461009857806309eef43e146100b45780632d35a8a2146100e45780633477ee2e14610102575b600080fd5b6100b260048036038101906100ad919061077e565b6101da565b005b6100ce60048036038101906100c99190610809565b6103d8565b6040516100db9190610851565b60405180910390f35b6100ec6103f8565b6040516100f9919061087b565b60405180910390f35b61011c6004803603810190610117919061077e565b610405565b60405161012a929190610926565b60405180910390f35b61014d6004803603810190610148919061077e565b6104c1565b60405161015b929190610926565b60405180910390f35b61017e60048036038101906101799190610956565b6105d1565b60405161018b919061087b565b60405180910390f35b61019c6105e7565b6040516101a991906109a5565b60405180910390f35b6101ba61060b565b6040516101c79190610851565b60405180910390f35b6101d861061e565b005b600060149054906101000a900460ff16610229576040517f08c379a000000000000000000000000000000000000000000000000000000000815260040161022090610a0c565b60405180910390fd5b600260003373ffffffffffffffffffffffffffffffffffffffff1673ffffffffffffffffffffffffffffffffffffffff16815260200190815260200160002060009054906101000a900460ff16156102b6576040517f08c379a00000000000000000000000000000000000000000000000000000000081526004016102ad90610a78565b60405180910390fd5b60018054905081106102fd576040517f08c379a00000000000000000000000000000000000000000000000000000000081526004016102f490610ae4565b60405180910390fd5b6001600260003373ffffffffffffffffffffffffffffffffffffffff1673ffffffffffffffffffffffffffffffffffffffff16815260200190815260200160002060006101000a81548160ff021916908315150217905550600180828154811061036a57610369610b04565b5b9060005260206000209060020201600101600082825461038a9190610b62565b92505081905550803373ffffffffffffffffffffffffffffffffffffffff167fa36cc2bebb74db33e9f88110a07ef56e1b31b24b4c4f51b54b1664266e29f45b60405160405180910390a350565b60026020528060005260406000206000915054906101000a900460ff1681565b6000600180549050905090565b6001818154811061041557600080fd5b906000526020600020906002020160009150905080600001805461043890610bc5565b80601f016020809104026020016040519081016040528092919081815260200182805461046490610bc5565b80156104b15780601f10610486576101008083540402835291602001916104b1565b820191906000526020600020905b81548152906001019060200180831161049457829003601f168201915b5050505050908060010154905082565b60606000600180549050831061050c576040517f08c379a000000000000000000000000000000000000000000000000000000000815260040161050390610ae4565b60405180910390fd5b60006001848154811061052257610521610b04565b5b9060005260206000209060020201905080600001816001015481805461054790610bc5565b80601f016020809104026020016040519081016040528092919081815260200182805461057390610bc5565b80156105c05780601f10610595576101008083540402835291602001916105c0565b820191906000526020600020905b8154815290600101906020018083116105a357829003601f168201915b505050505091509250925050915091565b600081836105df9190610b62565b905092915050565b60008054906101000a900473ffffffffffffffffffffffffffffffffffffffff1681565b600060149054906101000a900460ff1681565b60008054906101000a900473ffffffffffffffffffffffffffffffffffffffff1673ffffffffffffffffffffffffffffffffffffffff163373ffffffffffffffffffffffffffffffffffffffff16146106ac576040517f08c379a00000000000000000000000000000000000000000000000000000000081526004016106a390610c42565b60405180910390fd5b600060149054906101000a900460ff166106fb576040517f08c379a00000000000000000000000000000000000000000000000000000000081526004016106f290610a0c565b60405180910390fd5b60008060146101000a81548160ff0219169083151502179055507f66b6cb4a09abc3bf1cacc3c67420258856ffdad0deba9078cbd1658957b5021860405160405180910390a1565b600080fd5b6000819050919050565b61075b81610748565b811461076657600080fd5b50565b60008135905061077881610752565b92915050565b60006020828403121561079457610793610743565b5b60006107a284828501610769565b91505092915050565b600073ffffffffffffffffffffffffffffffffffffffff82169050919050565b60006107d6826107ab565b9050919050565b6107e6816107cb565b81146107f157600080fd5b50565b600081359050610803816107dd565b92915050565b60006020828403121561081f5761081e610743565b5b600061082d848285016107f4565b91505092915050565b60008115159050919050565b61084b81610836565b82525050565b60006020820190506108666000830184610842565b92915050565b61087581610748565b82525050565b6000602082019050610890600083018461086c565b92915050565b600081519050919050565b600082825260208201905092915050565b60005b838110156108d05780820151818401526020810190506108b5565b60008484015250505050565b6000601f19601f8301169050919050565b60006108f882610896565b61090281856108a1565b93506109128185602086016108b2565b61091b816108dc565b840191505092915050565b6000604082019050818103600083015261094081856108ed565b905061094f602083018461086c565b9392505050565b6000806040838503121561096d5761096c610743565b5b600061097b85828601610769565b925050602061098c85828601610769565b9150509250929050565b61099f816107cb565b82525050565b60006020820190506109ba6000830184610996565b92915050565b7f566f746163696f6e206365727261646100000000000000000000000000000000600082015250565b60006109f66010836108a1565b9150610a01826109c0565b602082019050919050565b60006020820190508181036000830152610a25816109e9565b9050919050565b7f59612068617320766f7461646f00000000000000000000000000000000000000600082015250565b6000610a62600d836108a1565b9150610a6d82610a2c565b602082019050919050565b60006020820190508181036000830152610a9181610a55565b9050919050565b7f494420696e76616c69646f000000000000000000000000000000000000000000600082015250565b6000610ace600b836108a1565b9150610ad982610a98565b602082019050919050565b60006020820190508181036000830152610afd81610ac1565b9050919050565b7f4e487b7100000000000000000000000000000000000000000000000000000000600052603260045260246000fd5b7f4e487b7100000000000000000000000000000000000000000000000000000000600052601160045260246000fd5b6000610b6d82610748565b9150610b7883610748565b9250828201905080821115610b9057610b8f610b33565b5b92915050565b7f4e487b7100000000000000000000000000000000000000000000000000000000600052602260045260246000fd5b60006002820490506001821680610bdd57607f821691505b602082108103610bf057610bef610b96565b5b50919050565b7f536f6c6f206f776e657200000000000000000000000000000000000000000000600082015250565b6000610c2c600a836108a1565b9150610c3782610bf6565b602082019050919050565b60006020820190508181036000830152610c5b81610c1f565b905091905056fea264697066735822122026482e73f0a177bba250adb36adb9d0e8c1dc1516a668224853f8dd10f7a5ca764736f6c63430008150033",
  "linkReferences": {},
  "deployedLinkReferences": {}
}