{
  "_format": "hh-sol-artifact-1",
  "contractName": "MMDVWineToken",
  "sourceName": "contracts/MMDVWineToken.sol",
  "abi": [
    {
      "inputs": [
        {
          "internalType": "uint256",
          "name": "cap_",
          "type": "uint256"
        }
      ],
      "stateMutability": "nonpayable",
      "type": "constructor"
    },
    {
      "inputs": [
        {
          "internalType": "uint256",
          "name": "increasedSupply",
          "type": "uint256"
        },
        {
          "internalType": "uint256",
          "name": "cap",
          "type": "uint256"
        }
      ],
      "name": "ERC20ExceededCap",
      "type": "error"
    },
    {
      "inputs": [
        {
          "internalType": "address",
          "name": "spender",
          "type": "address"
        },
        {
          "internalType": "uint256",
          "name": "allowance",
          "type": "uint256"
        },
        {
          "internalType": "uint256",
          "name": "needed",
          "type": "uint256"
        }
      ],
      "name": "ERC20InsufficientAllowance",
      "type": "error"
    },
    {
      "inputs": [
        {
          "internalType": "address",
          "name": "sender",
          "type": "address"
        },
        {
          "internalType": "uint256",
          "name": "balance",
          "type": "uint256"
        },
        {
          "internalType": "uint256",
          "name": "needed",
          "type": "uint256"
        }
      ],
      "name": "ERC20InsufficientBalance",
      "type": "error"
    },
    {
      "inputs": [
        {
          "internalType": "address",
          "name": "approver",
          "type": "address"
        }
      ],
      "name": "ERC20InvalidApprover",
      "type": "error"
    },
    {
      "inputs": [
        {
          "internalType": "uint256",
          "name": "cap",
          "type": "uint256"
        }
      ],
      "name": "ERC20InvalidCap",
      "type": "error"
    },
    {
      "inputs": [
        {
          "internalType": "address",
          "name": "receiver",
          "type": "address"
        }
      ],
      "name": "ERC20InvalidReceiver",
      "type": "error"
    },
    {
      "inputs": [
        {
          "internalType": "address",
          "name": "sender",
          "type": "address"
        }
      ],
      "name": "ERC20InvalidSender",
      "type": "error"
    },
    {
      "inputs": [
        {
          "internalType": "address",
          "name": "spender",
          "type": "address"
        }
      ],
      "name": "ERC20InvalidSpender",
      "type": "error"
    },
    {
      "inputs": [],
      "name": "EnforcedPause",
      "type": "error"
    },
    {
      "inputs": [],
      "name": "ExpectedPause",
      "type": "error"
    },
    {
      "inputs": [
        {
          "internalType": "address",
          "name": "owner",
          "type": "address"
        }
      ],
      "name": "OwnableInvalidOwner",
      "type": "error"
    },
    {
      "inputs": [
        {
          "internalType": "address",
          "name": "account",
          "type": "address"
        }
      ],
      "name": "OwnableUnauthorizedAccount",
      "type": "error"
    },
    {
      "anonymous": false,
      "inputs": [
        {
          "indexed": true,
          "internalType": "address",
          "name": "owner",
          "type": "address"
        },
        {
          "indexed": true,
          "internalType": "address",
          "name": "spender",
          "type": "address"
        },
        {
          "indexed": false,
          "internalType": "uint256",
          "name": "value",
          "type": "uint256"
        }
      ],
      "name": "Approval",
      "type": "event"
    },
    {
      "anonymous": false,
      "inputs": [
        {
          "indexed": true,
          "internalType": "address",
          "name": "previousOwner",
          "type": "address"
        },
        {
          "indexed": true,
          "internalType": "address",
          "name": "newOwner",
          "type": "address"
        }
      ],
      "name": "OwnershipTransferred",
      "type": "event"
    },
    {
      "anonymous": false,
      "inputs": [
        {
          "indexed": false,
          "internalType": "address",
          "name": "account",
          "type": "address"
        }
      ],
      "name": "Paused",
      "type": "event"
    },
    {
      "anonymous": false,
      "inputs": [
        {
          "indexed": true,
          "internalType": "address",
          "name": "from",
          "type": "address"
        },
        {
          "indexed": true,
          "internalType": "address",
          "name": "to",
          "type": "address"
        },
        {
          "indexed": false,
          "internalType": "uint256",
          "name": "value",
          "type": "uint256"
        }
      ],
      "name": "Transfer",
      "type": "event"
    },
    {
      "anonymous": false,
      "inputs": [
        {
          "indexed": false,
          "internalType": "address",
          "name": "account",
          "type": "address"
        }
      ],
      "name": "Unpaused",
      "type": "event"
    },
    {
      "inputs": [
        {
          "internalType": "address",
          "name": "owner",
          "type": "address"
        },
        {
          "internalType": "address",
          "name": "spender",
          "type": "address"
        }
      ],
      "name": "allowance",
      "outputs": [
        {
          "internalType": "uint256",
          "name": "",
          "type": "uint256"
        }
      ],
      "stateMutability": "view",
      "type": "function"
    },
    {
      "inputs": [
        {
          "internalType": "address",
          "name": "spender",
          "type": "address"
        },
        {
          "internalType": "uint256",
          "name": "value",
          "type": "uint256"
        }
      ],
      "name": "approve",
      "outputs": [
        {
          "internalType": "bool",
          "name": "",
          "type": "bool"
        }
      ],
      "stateMutability": "nonpayable",
      "type": "function"
    },
    {
      "inputs": [
        {
          "internalType": "address",
          "name": "account",
          "type": "address"
        }
      ],
      "name": "balanceOf",
      "outputs": [
        {
          "internalType": "uint256",
          "name": "",
          "type": "uint256"
        }
      ],
      "stateMutability": "view",
      "type": "function"
    },
    {
      "inputs": [
        {
          "internalType": "uint256",
          "name": "value",
          "type": "uint256"
        }
      ],
      "name": "burn",
      "outputs": [],
      "stateMutability": "nonpayable",
      "type": "function"
    },
    {
      "inputs": [
        {
          "internalType": "address",
          "name": "account",
          "type": "address"
        },
        {
          "internalType": "uint256",
          "name": "value",
          "type": "uint256"
        }
      ],
      "name": "burnFrom",
      "outputs": [],
      "stateMutability": "nonpayable",
      "type": "function"
    },
    {
      "inputs": [],
      "name": "cap",
      "outputs": [
        {
          "internalType": "uint256",
          "name": "",
          "type": "uint256"
        }
      ],
      "stateMutability": "view",
      "type": "function"
    },
    {
      "inputs": [],
      "name": "decimals",
      "outputs": [
        {
          "internalType": "uint8",
          "name": "",
          "type": "uint8"
        }
      ],
      "stateMutability": "view",
      "type": "function"
    },
    {
      "inputs": [
        {
          "internalType": "address",
          "name": "to",
          "type": "address"
        },
        {
          "internalType": "uint256",
          "name": "amount",
          "type": "uint256"
        }
      ],
      "name": "mint",
      "outputs": [],
      "stateMutability": "nonpayable",
      "type": "function"
    },
    {
      "inputs": [],
      "name": "name",
      "outputs": [
        {
          "internalType": "string",
          "name": "",
          "type": "string"
        }
      ],
      "stateMutability": "view",
      "type": "function"
    },
    {
      "inputs": [],
      "name": "owner",
      "outputs": [
        {
          "internalType": "address",
          "name": "",
          "type": "address"
        }
      ],
      "stateMutability": "view",
      "type": "function"
    },
    {
      "inputs": [],
      "name": "pause",
      "outputs": [],
      "stateMutability": "nonpayable",
      "type": "function"
    },
    {
      "inputs": [],
      "name": "paused",
      "outputs": [
        {
          "internalType": "bool",
          "name": "",
          "type": "bool"
        }
      ],
      "stateMutability": "view",
      "type": "function"
    },
    {
      "inputs": [],
      "name": "renounceOwnership",
      "outputs": [],
      "stateMutability": "nonpayable",
      "type": "function"
    },
    {
      "inputs": [],
      "name": "symbol",
      "outputs": [
        {
          "internalType": "string",
          "name": "",
          "type": "string"
        }
      ],
      "stateMutability": "view",
      "type": "function"
    },
    {
      "inputs": [],
      "name": "totalSupply",
      "outputs": [
        {
          "internalType": "uint256",
          "name": "",
          "type": "uint256"
        }
      ],
      "stateMutability": "view",
      "type": "function"
    },
    {
      "inputs": [
        {
          "internalType": "address",
          "name": "to",
          "type": "address"
        },
        {
          "internalType": "uint256",
          "name": "value",
          "type": "uint256"
        }
      ],
      "name": "transfer",
      "outputs": [
        {
          "internalType": "bool",
          "name": "",
          "type": "bool"
        }
      ],
      "stateMutability": "nonpayable",
      "type": "function"
    },
    {
      "inputs": [
        {
          "internalType": "address",
          "name": "from",
          "type": "address"
        },
        {
          "internalType": "address",
          "name": "to",
          "type": "address"
        },
        {
          "internalType": "uint256",
          "name": "value",
          "type": "uint256"
        }
      ],
      "name": "transferFrom",
      "outputs": [
        {
          "internalType": "bool",
          "name": "",
          "type": "bool"
        }
      ],
      "stateMutability": "nonpayable",
      "type": "function"
    },
    {
      "inputs": [
        {
          "internalType": "address",
          "name": "newOwner",
          "type": "address"
        }
      ],
      "name": "transferOwnership",
      "outputs": [],
      "stateMutability": "nonpayable",
      "type": "function"
    },
    {
      "inputs": [],
      "name": "unpause",
      "outputs": [],
      "stateMutability": "nonpayable",
      "type": "function"
    }
  ],
  "bytecode": "0x60a06040523480156200001157600080fd5b5060405162000ea438038062000ea483398101604081905262000034916200016d565b33816040518060400160405280600f81526020016e26a6a22b102bb4b732902a37b5b2b760891b815250604051806040016040528060038152602001621355d560ea1b81525081600390816200008b91906200022e565b5060046200009a82826200022e565b50505080600003620000c75760405163392e1e2760e01b8152600060048201526024015b60405180910390fd5b6080526005805460ff191690556001600160a01b0381166200010057604051631e4fbdf760e01b815260006004820152602401620000be565b6200010b8162000113565b5050620002fa565b600580546001600160a01b03838116610100818102610100600160a81b031985161790945560405193909204169182907f8be0079c531659141344cd1fd0a4f28419497f9722a3daafe3b4186f6b6457e090600090a35050565b6000602082840312156200018057600080fd5b5051919050565b634e487b7160e01b600052604160045260246000fd5b600181811c90821680620001b257607f821691505b602082108103620001d357634e487b7160e01b600052602260045260246000fd5b50919050565b601f82111562000229576000816000526020600020601f850160051c81016020861015620002045750805b601f850160051c820191505b81811015620002255782815560010162000210565b5050505b505050565b81516001600160401b038111156200024a576200024a62000187565b62000262816200025b84546200019d565b84620001d9565b602080601f8311600181146200029a5760008415620002815750858301515b600019600386901b1c1916600185901b17855562000225565b600085815260208120601f198616915b82811015620002cb57888601518255948401946001909101908401620002aa565b5085821015620002ea5787850151600019600388901b60f8161c191681555b5050505050600190811b01905550565b608051610b876200031d6000396000818161019d015261083b0152610b876000f3fe608060405234801561001057600080fd5b50600436106101215760003560e01c80635c975abb116100ad5780638da5cb5b116100715780638da5cb5b1461024857806395d89b4114610271578063a9059cbb14610279578063dd62ed3e1461028c578063f2fde38b146102c557600080fd5b80635c975abb146101f157806370a08231146101fc578063715018a61461022557806379cc67901461022d5780638456cb591461024057600080fd5b8063313ce567116100f4578063313ce5671461018c578063355274ea1461019b5780633f4ba83a146101c157806340c10f19146101cb57806342966c68146101de57600080fd5b806306fdde0314610126578063095ea7b31461014457806318160ddd1461016757806323b872dd14610179575b600080fd5b61012e6102d8565b60405161013b91906109b7565b60405180910390f35b610157610152366004610a22565b61036a565b604051901515815260200161013b565b6002545b60405190815260200161013b565b610157610187366004610a4c565b610384565b6040516012815260200161013b565b7f000000000000000000000000000000000000000000000000000000000000000061016b565b6101c96103a8565b005b6101c96101d9366004610a22565b6103ba565b6101c96101ec366004610a88565b6103d0565b60055460ff16610157565b61016b61020a366004610aa1565b6001600160a01b031660009081526020819052604090205490565b6101c96103dd565b6101c961023b366004610a22565b6103ef565b6101c9610404565b60055461010090046001600160a01b03166040516001600160a01b03909116815260200161013b565b61012e610414565b610157610287366004610a22565b610423565b61016b61029a366004610ac3565b6001600160a01b03918216600090815260016020908152604080832093909416825291909152205490565b6101c96102d3366004610aa1565b610431565b6060600380546102e790610af6565b80601f016020809104026020016040519081016040528092919081815260200182805461031390610af6565b80156103605780601f1061033557610100808354040283529160200191610360565b820191906000526020600020905b81548152906001019060200180831161034357829003601f168201915b5050505050905090565b600033610378818585610471565b60019150505b92915050565b600033610392858285610483565b61039d858585610501565b506001949350505050565b6103b0610560565b6103b8610593565b565b6103c2610560565b6103cc82826105e5565b5050565b6103da338261061b565b50565b6103e5610560565b6103b86000610651565b6103fa823383610483565b6103cc828261061b565b61040c610560565b6103b86106ab565b6060600480546102e790610af6565b600033610378818585610501565b610439610560565b6001600160a01b03811661046857604051631e4fbdf760e01b8152600060048201526024015b60405180910390fd5b6103da81610651565b61047e83838360016106e8565b505050565b6001600160a01b0383811660009081526001602090815260408083209386168352929052205460001981146104fb57818110156104ec57604051637dc7a0d960e11b81526001600160a01b0384166004820152602481018290526044810183905260640161045f565b6104fb848484840360006106e8565b50505050565b6001600160a01b03831661052b57604051634b637e8f60e11b81526000600482015260240161045f565b6001600160a01b0382166105555760405163ec442f0560e01b81526000600482015260240161045f565b61047e8383836107bd565b6005546001600160a01b036101009091041633146103b85760405163118cdaa760e01b815233600482015260240161045f565b61059b6107c8565b6005805460ff191690557f5db9ee0a495bf2e6ff9c91a7834c1ba4fdd244a5e8aa4e537bd38aeae4b073aa335b6040516001600160a01b03909116815260200160405180910390a1565b6001600160a01b03821661060f5760405163ec442f0560e01b81526000600482015260240161045f565b6103cc600083836107bd565b6001600160a01b03821661064557604051634b637e8f60e11b81526000600482015260240161045f565b6103cc826000836107bd565b600580546001600160a01b03838116610100818102610100600160a81b031985161790945560405193909204169182907f8be0079c531659141344cd1fd0a4f28419497f9722a3daafe3b4186f6b6457e090600090a35050565b6106b36107eb565b6005805460ff191660011790557f62e78cea01bee320cd4e420270b5ea74000d11b0c9f74754ebdbfc544b05a2586105c83390565b6001600160a01b0384166107125760405163e602df0560e01b81526000600482015260240161045f565b6001600160a01b03831661073c57604051634a1406b160e11b81526000600482015260240161045f565b6001600160a01b03808516600090815260016020908152604080832093871683529290522082905580156104fb57826001600160a01b0316846001600160a01b03167f8c5be1e5ebec7d5bd14f71427d1e84f3dd0314c0f7b2291e5b200ac8c7c3b925846040516107af91815260200190565b60405180910390a350505050565b61047e83838361080f565b60055460ff166103b857604051638dfc202b60e01b815260040160405180910390fd5b60055460ff16156103b85760405163d93c066560e01b815260040160405180910390fd5b6108176107eb565b61047e83838361082883838361088d565b6001600160a01b03831661047e576002547f000000000000000000000000000000000000000000000000000000000000000090818111156108865760405163279e7e1560e21b8152600481018290526024810183905260440161045f565b5050505050565b6001600160a01b0383166108b85780600260008282546108ad9190610b30565b9091555061092a9050565b6001600160a01b0383166000908152602081905260409020548181101561090b5760405163391434e360e21b81526001600160a01b0385166004820152602481018290526044810183905260640161045f565b6001600160a01b03841660009081526020819052604090209082900390555b6001600160a01b03821661094657600280548290039055610965565b6001600160a01b03821660009081526020819052604090208054820190555b816001600160a01b0316836001600160a01b03167fddf252ad1be2c89b69c2b068fc378daa952ba7f163c4a11628f55a4df523b3ef836040516109aa91815260200190565b60405180910390a3505050565b60006020808352835180602085015260005b818110156109e5578581018301518582016040015282016109c9565b506000604082860101526040601f19601f8301168501019250505092915050565b80356001600160a01b0381168114610a1d57600080fd5b919050565b60008060408385031215610a3557600080fd5b610a3e83610a06565b946020939093013593505050565b600080600060608486031215610a6157600080fd5b610a6a84610a06565b9250610a7860208501610a06565b9150604084013590509250925092565b600060208284031215610a9a57600080fd5b5035919050565b600060208284031215610ab357600080fd5b610abc82610a06565b9392505050565b60008060408385031215610ad657600080fd5b610adf83610a06565b9150610aed60208401610a06565b90509250929050565b600181811c90821680610b0a57607f821691505b602082108103610b2a57634e487b7160e01b600052602260045260246000fd5b50919050565b8082018082111561037e57634e487b7160e01b600052601160045260246000fdfea2646970667358221220d137d268f6a7a43218e689f7307acaf2b6f76187b7f074d8670f29e31f66391f64736f6c63430008180033",
  "linkReferences": {},
  "deployedLinkReferences": {}
}